{
  "contractName": "Adoption",
  "abi": [
    {
      "anonymous": false,
      "inputs": [
        {
          "indexed": true,
          "internalType": "address",
          "name": "_renter",
          "type": "address"
        },
        {
          "indexed": false,
          "internalType": "uint256",
          "name": "_rentalDate",
          "type": "uint256"
        },
        {
          "indexed": false,
          "internalType": "uint256",
          "name": "_returnDate",
          "type": "uint256"
        },
        {
          "indexed": false,
          "internalType": "uint256",
          "name": "_rentalPrice",
          "type": "uint256"
        }
      ],
      "name": "E_Rent",
      "type": "event"
    },
    {
      "anonymous": false,
      "inputs": [
        {
          "indexed": true,
          "internalType": "address",
          "name": "_renter",
          "type": "address"
        },
        {
          "indexed": false,
          "internalType": "uint256",
          "name": "_returnDate",
          "type": "uint256"
        }
      ],
      "name": "E_ReturnRental",
      "type": "event"
    },
    {
      "constant": true,
      "inputs": [],
      "name": "available",
      "outputs": [
        {
          "internalType": "bool",
          "name": "",
          "type": "bool"
        }
      ],
      "payable": false,
      "stateMutability": "view",
      "type": "function"
    },
    {
      "constant": true,
      "inputs": [],
      "name": "maxRentalTime",
      "outputs": [
        {
          "internalType": "uint256",
          "name": "",
          "type": "uint256"
        }
      ],
      "payable": false,
      "stateMutability": "view",
      "type": "function"
    },
    {
      "constant": true,
      "inputs": [],
      "name": "minRentalTime",
      "outputs": [
        {
          "internalType": "uint256",
          "name": "",
          "type": "uint256"
        }
      ],
      "payable": false,
      "stateMutability": "view",
      "type": "function"
    },
    {
      "constant": true,
      "inputs": [],
      "name": "owner",
      "outputs": [
        {
          "internalType": "address",
          "name": "",
          "type": "address"
        }
      ],
      "payable": false,
      "stateMutability": "view",
      "type": "function"
    },
    {
      "constant": true,
      "inputs": [],
      "name": "rentalDate",
      "outputs": [
        {
          "internalType": "uint256",
          "name": "",
          "type": "uint256"
        }
      ],
      "payable": false,
      "stateMutability": "view",
      "type": "function"
    },
    {
      "constant": true,
      "inputs": [],
      "name": "rentalPrice",
      "outputs": [
        {
          "internalType": "uint256",
          "name": "",
          "type": "uint256"
        }
      ],
      "payable": false,
      "stateMutability": "view",
      "type": "function"
    },
    {
      "constant": true,
      "inputs": [],
      "name": "rented",
      "outputs": [
        {
          "internalType": "bool",
          "name": "",
          "type": "bool"
        }
      ],
      "payable": false,
      "stateMutability": "view",
      "type": "function"
    },
    {
      "constant": true,
      "inputs": [],
      "name": "renter",
      "outputs": [
        {
          "internalType": "address",
          "name": "",
          "type": "address"
        }
      ],
      "payable": false,
      "stateMutability": "view",
      "type": "function"
    },
    {
      "constant": true,
      "inputs": [],
      "name": "returnDate",
      "outputs": [
        {
          "internalType": "uint256",
          "name": "",
          "type": "uint256"
        }
      ],
      "payable": false,
      "stateMutability": "view",
      "type": "function"
    },
    {
      "constant": false,
      "inputs": [],
      "name": "Rentablee",
      "outputs": [],
      "payable": false,
      "stateMutability": "nonpayable",
      "type": "function"
    },
    {
      "constant": false,
      "inputs": [
        {
          "internalType": "uint256",
          "name": "_pricePerHour",
          "type": "uint256"
        },
        {
          "internalType": "uint256",
          "name": "_minRentalTime",
          "type": "uint256"
        },
        {
          "internalType": "uint256",
          "name": "_maxRentalTime",
          "type": "uint256"
        }
      ],
      "name": "rentableSetup",
      "outputs": [],
      "payable": false,
      "stateMutability": "nonpayable",
      "type": "function"
    },
    {
      "constant": false,
      "inputs": [
        {
          "internalType": "bool",
          "name": "_available",
          "type": "bool"
        }
      ],
      "name": "setAvailable",
      "outputs": [],
      "payable": false,
      "stateMutability": "nonpayable",
      "type": "function"
    },
    {
      "constant": false,
      "inputs": [
        {
          "internalType": "uint256",
          "name": "_pricePerHour",
          "type": "uint256"
        }
      ],
      "name": "setRentalPricePerHour",
      "outputs": [],
      "payable": false,
      "stateMutability": "nonpayable",
      "type": "function"
    },
    {
      "constant": false,
      "inputs": [
        {
          "internalType": "uint256",
          "name": "_pricePerDay",
          "type": "uint256"
        }
      ],
      "name": "setRentalPricePerDay",
      "outputs": [],
      "payable": false,
      "stateMutability": "nonpayable",
      "type": "function"
    },
    {
      "constant": false,
      "inputs": [],
      "name": "rent",
      "outputs": [],
      "payable": true,
      "stateMutability": "payable",
      "type": "function"
    },
    {
      "constant": true,
      "inputs": [],
      "name": "rentalElapsedTime",
      "outputs": [
        {
          "internalType": "uint256",
          "name": "",
          "type": "uint256"
        }
      ],
      "payable": false,
      "stateMutability": "view",
      "type": "function"
    },
    {
      "constant": true,
      "inputs": [],
      "name": "rentalAccumulatedPrice",
      "outputs": [
        {
          "internalType": "uint256",
          "name": "",
          "type": "uint256"
        }
      ],
      "payable": false,
      "stateMutability": "view",
      "type": "function"
    },
    {
      "constant": true,
      "inputs": [],
      "name": "rentalBalanceRemaining",
      "outputs": [
        {
          "internalType": "uint256",
          "name": "",
          "type": "uint256"
        }
      ],
      "payable": false,
      "stateMutability": "view",
      "type": "function"
    },
    {
      "constant": true,
      "inputs": [],
      "name": "rentalTimeRemaining",
      "outputs": [
        {
          "internalType": "uint256",
          "name": "",
          "type": "uint256"
        }
      ],
      "payable": false,
      "stateMutability": "view",
      "type": "function"
    },
    {
      "constant": true,
      "inputs": [],
      "name": "rentalTotalTime",
      "outputs": [
        {
          "internalType": "uint256",
          "name": "",
          "type": "uint256"
        }
      ],
      "payable": false,
      "stateMutability": "view",
      "type": "function"
    },
    {
      "constant": false,
      "inputs": [],
      "name": "forceRentalEnd",
      "outputs": [],
      "payable": false,
      "stateMutability": "nonpayable",
      "type": "function"
    },
    {
      "constant": false,
      "inputs": [],
      "name": "returnRental",
      "outputs": [],
      "payable": false,
      "stateMutability": "nonpayable",
      "type": "function"
    }
  ],
  "bytecode": "0x608060405234801561001057600080fd5b50610e55806100206000396000f3fe6080604052600436106101355760003560e01c80638da5cb5b116100ab578063ccfaa72f1161006f578063ccfaa72f14610431578063d1c13abd1461046c578063db22032f14610483578063e1ad9b75146104ae578063e2df20d1146104dd578063fc590d091461051a57610135565b80638da5cb5b14610332578063a611e0e614610389578063abfdfbe6146103a0578063ac81f637146103db578063b6b7032e1461040657610135565b80634b0875f8116100fd5780634b0875f81461026557806353c2828f1461027c57806367c5d1b1146102a75780636a9d69a7146102d257806382996d9f146102fd57806387d5c6b81461030757610135565b80631c43cd041461013a5780632a0f3c35146101655780632ce7a017146101b45780632e88ab0b146101df57806348a0d75414610236575b600080fd5b34801561014657600080fd5b5061014f610545565b6040518082815260200191505060405180910390f35b34801561017157600080fd5b506101b26004803603606081101561018857600080fd5b8101908080359060200190929190803590602001909291908035906020019092919050505061054b565b005b3480156101c057600080fd5b506101c961061e565b6040518082815260200191505060405180910390f35b3480156101eb57600080fd5b506101f4610624565b604051808273ffffffffffffffffffffffffffffffffffffffff1673ffffffffffffffffffffffffffffffffffffffff16815260200191505060405180910390f35b34801561024257600080fd5b5061024b61064a565b604051808215151515815260200191505060405180910390f35b34801561027157600080fd5b5061027a61065d565b005b34801561028857600080fd5b5061029161069f565b6040518082815260200191505060405180910390f35b3480156102b357600080fd5b506102bc6106d9565b6040518082815260200191505060405180910390f35b3480156102de57600080fd5b506102e76106df565b6040518082815260200191505060405180910390f35b610305610714565b005b34801561031357600080fd5b5061031c610891565b6040518082815260200191505060405180910390f35b34801561033e57600080fd5b506103476108c4565b604051808273ffffffffffffffffffffffffffffffffffffffff1673ffffffffffffffffffffffffffffffffffffffff16815260200191505060405180910390f35b34801561039557600080fd5b5061039e6108e9565b005b3480156103ac57600080fd5b506103d9600480360360208110156103c357600080fd5b81019080803590602001909291905050506109e2565b005b3480156103e757600080fd5b506103f0610a8d565b6040518082815260200191505060405180910390f35b34801561041257600080fd5b5061041b610a93565b6040518082815260200191505060405180910390f35b34801561043d57600080fd5b5061046a6004803603602081101561045457600080fd5b8101908080359060200190929190505050610ad3565b005b34801561047857600080fd5b50610481610b74565b005b34801561048f57600080fd5b50610498610cef565b6040518082815260200191505060405180910390f35b3480156104ba57600080fd5b506104c3610d22565b604051808215151515815260200191505060405180910390f35b3480156104e957600080fd5b506105186004803603602081101561050057600080fd5b81019080803515159060200190929190505050610d35565b005b34801561052657600080fd5b5061052f610dab565b6040518082815260200191505060405180910390f35b60055481565b6000809054906101000a900473ffffffffffffffffffffffffffffffffffffffff1673ffffffffffffffffffffffffffffffffffffffff163373ffffffffffffffffffffffffffffffffffffffff16146105a457600080fd5b600860009054906101000a900460ff16156105be57600080fd5b603c82101580156105d357506301e133808111155b80156105de57508082105b6105e757600080fd5b6001600860006101000a81548160ff021916908315150217905550816006819055508060078190555061061983610ad3565b505050565b60065481565b600160009054906101000a900473ffffffffffffffffffffffffffffffffffffffff1681565b600860009054906101000a900460ff1681565b336000806101000a81548173ffffffffffffffffffffffffffffffffffffffff021916908373ffffffffffffffffffffffffffffffffffffffff160217905550565b6000600460009054906101000a900460ff1680156106bf57506003544211155b6106c857600080fd5b6005546106d3610cef565b02905090565b60075481565b6000600460009054906101000a900460ff1680156106ff57506003544211155b61070857600080fd5b60025460035403905090565b600860009054906101000a900460ff1661072d57600080fd5b600460009054906101000a900460ff16158061074a575060035442115b61075357600080fd5b6000341161076057600080fd5b60006005541161076f57600080fd5b6000600554348161077c57fe5b049050600654811015801561079357506007548111155b61079c57600080fd5b8042016003819055506001600460006101000a81548160ff02191690831515021790555033600160006101000a81548173ffffffffffffffffffffffffffffffffffffffff021916908373ffffffffffffffffffffffffffffffffffffffff16021790555042600281905550600160009054906101000a900473ffffffffffffffffffffffffffffffffffffffff1673ffffffffffffffffffffffffffffffffffffffff167fb03c9e82198a44a54b2a93499c246bad28b278c3b5c5d4649b8d4f5e148fee3b60025460035460055460405180848152602001838152602001828152602001935050505060405180910390a250565b6000600460009054906101000a900460ff1680156108b157506003544211155b6108ba57600080fd5b6002544203905090565b6000809054906101000a900473ffffffffffffffffffffffffffffffffffffffff1681565b6000809054906101000a900473ffffffffffffffffffffffffffffffffffffffff1673ffffffffffffffffffffffffffffffffffffffff163373ffffffffffffffffffffffffffffffffffffffff161461094257600080fd5b6003544211801561095f5750600460009054906101000a900460ff165b61096857600080fd5b600160009054906101000a900473ffffffffffffffffffffffffffffffffffffffff1673ffffffffffffffffffffffffffffffffffffffff167fdfc5c0e822ca4bd6c981a2df67d25718cdaebc3838b1286c353a7da29f8664a6426040518082815260200191505060405180910390a26109e0610db1565b565b6000809054906101000a900473ffffffffffffffffffffffffffffffffffffffff1673ffffffffffffffffffffffffffffffffffffffff163373ffffffffffffffffffffffffffffffffffffffff1614610a3b57600080fd5b600460009054906101000a900460ff161580610a58575060035442115b610a6157600080fd5b60008111610a6e57600080fd5b610e1060188281610a7b57fe5b0481610a8357fe5b0460058190555050565b60025481565b6000600460009054906101000a900460ff168015610ab357506003544211155b610abc57600080fd5b6000610ac6610891565b9050806005540291505090565b6000809054906101000a900473ffffffffffffffffffffffffffffffffffffffff1673ffffffffffffffffffffffffffffffffffffffff163373ffffffffffffffffffffffffffffffffffffffff1614610b2c57600080fd5b600460009054906101000a900460ff161580610b49575060035442115b610b5257600080fd5b60008111610b5f57600080fd5b610e108181610b6a57fe5b0460058190555050565b600160009054906101000a900473ffffffffffffffffffffffffffffffffffffffff1673ffffffffffffffffffffffffffffffffffffffff163373ffffffffffffffffffffffffffffffffffffffff1614610bce57600080fd5b600460009054906101000a900460ff168015610bec57506003544211155b610bf557600080fd5b6000809050600654610c05610891565b1015610c2257600554600654610c196106df565b03029050610c2d565b610c2a61069f565b90505b600160009054906101000a900473ffffffffffffffffffffffffffffffffffffffff1673ffffffffffffffffffffffffffffffffffffffff167fdfc5c0e822ca4bd6c981a2df67d25718cdaebc3838b1286c353a7da29f8664a6426040518082815260200191505060405180910390a2610ca5610db1565b3373ffffffffffffffffffffffffffffffffffffffff166108fc829081150290604051600060405180830381858888f19350505050158015610ceb573d6000803e3d6000fd5b5050565b6000600460009054906101000a900460ff168015610d0f57506003544211155b610d1857600080fd5b4260035403905090565b600460009054906101000a900460ff1681565b6000809054906101000a900473ffffffffffffffffffffffffffffffffffffffff1673ffffffffffffffffffffffffffffffffffffffff163373ffffffffffffffffffffffffffffffffffffffff1614610d8e57600080fd5b80600860006101000a81548160ff02191690831515021790555050565b60035481565b6000600460006101000a81548160ff0219169083151502179055506000600160006101000a81548173ffffffffffffffffffffffffffffffffffffffff021916908373ffffffffffffffffffffffffffffffffffffffff1602179055506000600281905550600060038190555056fea265627a7a72315820a5165f27875c6c580fe452e2f965d4f1abdb49c440c8738eac62de8622e1937c64736f6c634300050c0032",
  "source": "pragma solidity ^0.5.0;\r\n//\r\n// Permissions\r\n//\r\n//                                      Owner    Renter   Anyone\r\n// Initialize                             x\r\n// Setup                                  x\r\n// Set rental price                       x\r\n// Make available/unavailable             x\r\n// Force rental end (after period)        x\r\n// Call function with onlyRenter                   x\r\n// End rental before return time                   x\r\n// Rent                                                      x\r\n\r\n//\r\ncontract Adoption {\r\n\r\n\r\n    // The owner of this car\r\n    address public owner;\r\n     // The account currently renting the car\r\n    address public renter;\r\n\r\n    // The date when the latest rental started\r\n    uint public rentalDate;\r\n    // The date when the latest rental is supposed to end\r\n    uint public returnDate;\r\n\r\n    // Whether or not the car is currently rented\r\n    bool public rented;\r\n\r\n    // The price per second of the rental (in wei)\r\n    uint public rentalPrice;\r\n\r\n    //Can not be rented for less time than this.\r\n    //If renter tries to return the car earlier than this time, minimum will be charged anyways\r\n    uint public minRentalTime;\r\n    uint constant MIN_RENTAL_TIME = 60;\r\n\r\n    //Can not be rented for longer than this.\r\n    uint public maxRentalTime;\r\n    uint constant MAX_RENTAL_TIME = 3600 * 24 * 365;\r\n\r\n    // Whether or not the car can be rented. (Owner can take it off to prevent rental)\r\n    // If its currently rented, making it unavailable doesn't stop it from being used\r\n    bool public available;\r\n\r\n    //\r\n    // Events\r\n    //\r\n\r\n    event E_Rent(address indexed _renter, uint _rentalDate, uint _returnDate, uint _rentalPrice);\r\n    event E_ReturnRental(address indexed _renter, uint _returnDate);\r\n\r\n    //\r\n    // MODIFIERS\r\n    //\r\n\r\n    /// allows only the owner to call functions with this modifier\r\n    modifier onlyOwner() {\r\n        require(msg.sender == owner);\r\n        _;\r\n    }\r\n\r\n    /// allows only the current renter to call functions with this modifier\r\n    modifier onlyRenter() {\r\n        require(msg.sender == renter);\r\n        _;\r\n    }\r\n\r\n    /// allows functions with this modifier to be called only when NOT rented\r\n    modifier whenNotRented() {\r\n        require(!rented || now > returnDate);\r\n        _;\r\n    }\r\n\r\n    /// allows functions with this modifier to be called only when rented\r\n    modifier whenRented() {\r\n        require(rented && now <= returnDate);\r\n        _;\r\n    }\r\n\r\n    /// allows functions with this modifier to be called only when car is available\r\n    modifier ifAvailable() {\r\n        require(available);\r\n        _;\r\n    }\r\n\r\n    /////////\r\n\r\n    function Rentablee() public {\r\n        owner = msg.sender;\r\n    }\r\n\r\n    // sets up the rentable car\r\n    // param _pricePerHour the rental price per hour in wei\r\n    // param _minRentalTime the minimum time the object has to be rented for\r\n    // param _maxRentalTime the maximum time the object has to be rented for\r\n    function rentableSetup(uint _pricePerHour, uint _minRentalTime, uint _maxRentalTime) public onlyOwner {\r\n        require(!available); // Take car down before trying to update\r\n        require(_minRentalTime >= MIN_RENTAL_TIME &&\r\n                _maxRentalTime <= MAX_RENTAL_TIME &&\r\n                _minRentalTime < _maxRentalTime);\r\n\r\n        available = true;\r\n        minRentalTime = _minRentalTime;\r\n        maxRentalTime = _maxRentalTime;\r\n\r\n        setRentalPricePerHour(_pricePerHour); // _pricePerHour > 0;\r\n\r\n    }\r\n\r\n    // owner can make the car available/unavailable for rental\r\n    function setAvailable(bool _available) public onlyOwner {\r\n        available = _available;\r\n    }\r\n\r\n    function setRentalPricePerHour(uint _pricePerHour) public onlyOwner whenNotRented{\r\n        require(_pricePerHour > 0);\r\n        rentalPrice = _pricePerHour / 3600;\r\n    }\r\n\r\n    function setRentalPricePerDay(uint _pricePerDay) public onlyOwner whenNotRented{\r\n        require(_pricePerDay > 0);\r\n        rentalPrice = _pricePerDay / 24 / 3600;\r\n    }\r\n\r\n\r\n\r\n    // rents the car for any given time depending money sent and price of car\r\n    function rent() public payable ifAvailable whenNotRented{\r\n        require (msg.value > 0);\r\n        require (rentalPrice > 0);              // Make sure the rental price was set\r\n\r\n        uint rentalTime = msg.value / rentalPrice;\r\n        require(rentalTime >= minRentalTime && rentalTime <= maxRentalTime);\r\n\r\n        returnDate = now + rentalTime;\r\n\r\n        rented = true;\r\n        renter = msg.sender;\r\n        rentalDate = now;\r\n\r\n    emit E_Rent(renter, rentalDate, returnDate, rentalPrice);\r\n    }\r\n\r\n    // return the elapsed time since the car was rented\r\n    function rentalElapsedTime() public view whenRented returns (uint){\r\n        return now - rentalDate;\r\n    }\r\n\r\n    // return the wei owed by the renter given how much time has passed since the rental\r\n    function rentalAccumulatedPrice() public view whenRented returns (uint){\r\n        uint _rentalElapsedTime = rentalElapsedTime();\r\n        return rentalPrice * _rentalElapsedTime;\r\n    }\r\n\r\n    function rentalBalanceRemaining() public view whenRented returns (uint){\r\n        return rentalTimeRemaining() * rentalPrice;\r\n    }\r\n\r\n    function rentalTimeRemaining() public view whenRented returns (uint){\r\n        return (returnDate - now);\r\n    }\r\n\r\n    function rentalTotalTime() public view whenRented returns (uint){\r\n        return (returnDate - rentalDate);\r\n    }\r\n\r\n\r\n    // can be called by owner of the car if renter doesn't return it.\r\n    function forceRentalEnd() public onlyOwner{\r\n        require(now > returnDate && rented);\r\n\r\n        emit E_ReturnRental(renter, now);\r\n\r\n        resetRental();\r\n    }\r\n\r\n    // the renter can return the car during the rental period and get a refund of the outstanding time\r\n    function returnRental() public onlyRenter whenRented {\r\n        // Calculate rental remaining time and return money to renter\r\n        // If time elapsed is less than the minimum rental time, we charge the minimum\r\n        // Else, we return all pending balance.\r\n        uint fundsToReturn = 0;\r\n        if(rentalElapsedTime() < minRentalTime){\r\n            fundsToReturn = (rentalTotalTime() - minRentalTime) * rentalPrice ;\r\n        }else{\r\n            fundsToReturn = rentalBalanceRemaining();\r\n        }\r\n\r\n        emit E_ReturnRental(renter, now);\r\n\r\n        resetRental();\r\n\r\n        msg.sender.transfer(fundsToReturn);\r\n\r\n\r\n    }\r\n\r\n    // resets the rental variables\r\n    function resetRental() private{\r\n        rented = false;\r\n        renter = address(0);\r\n        rentalDate = 0;\r\n        returnDate = 0;\r\n    }\r\n\r\n}\r\n",
  "sourcePath": "C:\\Users\\m7-66\\Desktop\\TruffleProject-rentCar\\contracts\\Adoption.sol",
  "compiler": {
    "name": "solc",
    "version": "0.5.12+commit.7709ece9.Emscripten.clang"
  },
  "schemaVersion": "3.0.18",
  "updatedAt": "2020-07-20T16:50:40.903Z",
  "devdoc": {
    "methods": {}
  },
  "userdoc": {
    "methods": {
      "Rentablee()": {
        "notice": "//////"
      }
    }
  }
}