{
  "contractName": "Adoption",
  "abi": [
    {
      "anonymous": false,
      "inputs": [
        {
          "indexed": true,
          "internalType": "address",
          "name": "_renter",
          "type": "address"
        },
        {
          "indexed": false,
          "internalType": "uint256",
          "name": "_rentalDate",
          "type": "uint256"
        },
        {
          "indexed": false,
          "internalType": "uint256",
          "name": "_returnDate",
          "type": "uint256"
        },
        {
          "indexed": false,
          "internalType": "uint256",
          "name": "_rentalPrice",
          "type": "uint256"
        }
      ],
      "name": "E_Rent",
      "type": "event"
    },
    {
      "anonymous": false,
      "inputs": [
        {
          "indexed": true,
          "internalType": "address",
          "name": "_renter",
          "type": "address"
        },
        {
          "indexed": false,
          "internalType": "uint256",
          "name": "_returnDate",
          "type": "uint256"
        }
      ],
      "name": "E_ReturnRental",
      "type": "event"
    },
    {
      "constant": true,
      "inputs": [],
      "name": "available",
      "outputs": [
        {
          "internalType": "bool",
          "name": "",
          "type": "bool"
        }
      ],
      "payable": false,
      "stateMutability": "view",
      "type": "function"
    },
    {
      "constant": true,
      "inputs": [],
      "name": "maxRentalTime",
      "outputs": [
        {
          "internalType": "uint256",
          "name": "",
          "type": "uint256"
        }
      ],
      "payable": false,
      "stateMutability": "view",
      "type": "function"
    },
    {
      "constant": true,
      "inputs": [],
      "name": "minRentalTime",
      "outputs": [
        {
          "internalType": "uint256",
          "name": "",
          "type": "uint256"
        }
      ],
      "payable": false,
      "stateMutability": "view",
      "type": "function"
    },
    {
      "constant": true,
      "inputs": [],
      "name": "owner",
      "outputs": [
        {
          "internalType": "address",
          "name": "",
          "type": "address"
        }
      ],
      "payable": false,
      "stateMutability": "view",
      "type": "function"
    },
    {
      "constant": true,
      "inputs": [],
      "name": "rentalDate",
      "outputs": [
        {
          "internalType": "uint256",
          "name": "",
          "type": "uint256"
        }
      ],
      "payable": false,
      "stateMutability": "view",
      "type": "function"
    },
    {
      "constant": true,
      "inputs": [],
      "name": "rentalPrice",
      "outputs": [
        {
          "internalType": "uint256",
          "name": "",
          "type": "uint256"
        }
      ],
      "payable": false,
      "stateMutability": "view",
      "type": "function"
    },
    {
      "constant": true,
      "inputs": [],
      "name": "rented",
      "outputs": [
        {
          "internalType": "bool",
          "name": "",
          "type": "bool"
        }
      ],
      "payable": false,
      "stateMutability": "view",
      "type": "function"
    },
    {
      "constant": true,
      "inputs": [],
      "name": "renter",
      "outputs": [
        {
          "internalType": "address",
          "name": "",
          "type": "address"
        }
      ],
      "payable": false,
      "stateMutability": "view",
      "type": "function"
    },
    {
      "constant": true,
      "inputs": [],
      "name": "returnDate",
      "outputs": [
        {
          "internalType": "uint256",
          "name": "",
          "type": "uint256"
        }
      ],
      "payable": false,
      "stateMutability": "view",
      "type": "function"
    },
    {
      "constant": false,
      "inputs": [],
      "name": "Rentablee",
      "outputs": [],
      "payable": false,
      "stateMutability": "nonpayable",
      "type": "function"
    },
    {
      "constant": false,
      "inputs": [
        {
          "internalType": "uint256",
          "name": "_pricePerHour",
          "type": "uint256"
        },
        {
          "internalType": "uint256",
          "name": "_minRentalTime",
          "type": "uint256"
        },
        {
          "internalType": "uint256",
          "name": "_maxRentalTime",
          "type": "uint256"
        }
      ],
      "name": "rentableSetup",
      "outputs": [],
      "payable": false,
      "stateMutability": "nonpayable",
      "type": "function"
    },
    {
      "constant": false,
      "inputs": [
        {
          "internalType": "bool",
          "name": "_available",
          "type": "bool"
        }
      ],
      "name": "setAvailable",
      "outputs": [],
      "payable": false,
      "stateMutability": "nonpayable",
      "type": "function"
    },
    {
      "constant": false,
      "inputs": [
        {
          "internalType": "uint256",
          "name": "_pricePerHour",
          "type": "uint256"
        }
      ],
      "name": "setRentalPricePerHour",
      "outputs": [],
      "payable": false,
      "stateMutability": "nonpayable",
      "type": "function"
    },
    {
      "constant": false,
      "inputs": [
        {
          "internalType": "uint256",
          "name": "_pricePerDay",
          "type": "uint256"
        }
      ],
      "name": "setRentalPricePerDay",
      "outputs": [],
      "payable": false,
      "stateMutability": "nonpayable",
      "type": "function"
    },
    {
      "constant": false,
      "inputs": [
        {
          "internalType": "uint256",
          "name": "_pricePerSecond",
          "type": "uint256"
        }
      ],
      "name": "setRentalPricePerSecond",
      "outputs": [],
      "payable": false,
      "stateMutability": "nonpayable",
      "type": "function"
    },
    {
      "constant": false,
      "inputs": [],
      "name": "rent",
      "outputs": [],
      "payable": true,
      "stateMutability": "payable",
      "type": "function"
    },
    {
      "constant": true,
      "inputs": [],
      "name": "rentalElapsedTime",
      "outputs": [
        {
          "internalType": "uint256",
          "name": "",
          "type": "uint256"
        }
      ],
      "payable": false,
      "stateMutability": "view",
      "type": "function"
    },
    {
      "constant": true,
      "inputs": [],
      "name": "rentalAccumulatedPrice",
      "outputs": [
        {
          "internalType": "uint256",
          "name": "",
          "type": "uint256"
        }
      ],
      "payable": false,
      "stateMutability": "view",
      "type": "function"
    },
    {
      "constant": true,
      "inputs": [],
      "name": "rentalBalanceRemaining",
      "outputs": [
        {
          "internalType": "uint256",
          "name": "",
          "type": "uint256"
        }
      ],
      "payable": false,
      "stateMutability": "view",
      "type": "function"
    },
    {
      "constant": true,
      "inputs": [],
      "name": "rentalTimeRemaining",
      "outputs": [
        {
          "internalType": "uint256",
          "name": "",
          "type": "uint256"
        }
      ],
      "payable": false,
      "stateMutability": "view",
      "type": "function"
    },
    {
      "constant": true,
      "inputs": [],
      "name": "rentalTotalTime",
      "outputs": [
        {
          "internalType": "uint256",
          "name": "",
          "type": "uint256"
        }
      ],
      "payable": false,
      "stateMutability": "view",
      "type": "function"
    },
    {
      "constant": false,
      "inputs": [],
      "name": "forceRentalEnd",
      "outputs": [],
      "payable": false,
      "stateMutability": "nonpayable",
      "type": "function"
    },
    {
      "constant": false,
      "inputs": [],
      "name": "returnRental",
      "outputs": [],
      "payable": false,
      "stateMutability": "nonpayable",
      "type": "function"
    }
  ],
  "bytecode": "0x608060405234801561001057600080fd5b50610f31806100206000396000f3fe6080604052600436106101405760003560e01c806387d5c6b8116100b6578063ccfaa72f1161006f578063ccfaa72f14610477578063d1c13abd146104b2578063db22032f146104c9578063e1ad9b75146104f4578063e2df20d114610523578063fc590d091461056057610140565b806387d5c6b81461034d5780638da5cb5b14610378578063a611e0e6146103cf578063abfdfbe6146103e6578063ac81f63714610421578063b6b7032e1461044c57610140565b80634b0875f8116101085780634b0875f81461027057806353c2828f1461028757806353ffe1f9146102b257806367c5d1b1146102ed5780636a9d69a71461031857806382996d9f1461034357610140565b80631c43cd04146101455780632a0f3c35146101705780632ce7a017146101bf5780632e88ab0b146101ea57806348a0d75414610241575b600080fd5b34801561015157600080fd5b5061015a61058b565b6040518082815260200191505060405180910390f35b34801561017c57600080fd5b506101bd6004803603606081101561019357600080fd5b81019080803590602001909291908035906020019092919080359060200190929190505050610591565b005b3480156101cb57600080fd5b506101d4610664565b6040518082815260200191505060405180910390f35b3480156101f657600080fd5b506101ff61066a565b604051808273ffffffffffffffffffffffffffffffffffffffff1673ffffffffffffffffffffffffffffffffffffffff16815260200191505060405180910390f35b34801561024d57600080fd5b50610256610690565b604051808215151515815260200191505060405180910390f35b34801561027c57600080fd5b506102856106a3565b005b34801561029357600080fd5b5061029c6106e5565b6040518082815260200191505060405180910390f35b3480156102be57600080fd5b506102eb600480360360208110156102d557600080fd5b810190808035906020019092919050505061071f565b005b3480156102f957600080fd5b506103026107b5565b6040518082815260200191505060405180910390f35b34801561032457600080fd5b5061032d6107bb565b6040518082815260200191505060405180910390f35b61034b6107f0565b005b34801561035957600080fd5b5061036261096d565b6040518082815260200191505060405180910390f35b34801561038457600080fd5b5061038d6109a0565b604051808273ffffffffffffffffffffffffffffffffffffffff1673ffffffffffffffffffffffffffffffffffffffff16815260200191505060405180910390f35b3480156103db57600080fd5b506103e46109c5565b005b3480156103f257600080fd5b5061041f6004803603602081101561040957600080fd5b8101908080359060200190929190505050610abe565b005b34801561042d57600080fd5b50610436610b69565b6040518082815260200191505060405180910390f35b34801561045857600080fd5b50610461610b6f565b6040518082815260200191505060405180910390f35b34801561048357600080fd5b506104b06004803603602081101561049a57600080fd5b8101908080359060200190929190505050610baf565b005b3480156104be57600080fd5b506104c7610c50565b005b3480156104d557600080fd5b506104de610dcb565b6040518082815260200191505060405180910390f35b34801561050057600080fd5b50610509610dfe565b604051808215151515815260200191505060405180910390f35b34801561052f57600080fd5b5061055e6004803603602081101561054657600080fd5b81019080803515159060200190929190505050610e11565b005b34801561056c57600080fd5b50610575610e87565b6040518082815260200191505060405180910390f35b60055481565b6000809054906101000a900473ffffffffffffffffffffffffffffffffffffffff1673ffffffffffffffffffffffffffffffffffffffff163373ffffffffffffffffffffffffffffffffffffffff16146105ea57600080fd5b600860009054906101000a900460ff161561060457600080fd5b603c821015801561061957506301e133808111155b801561062457508082105b61062d57600080fd5b6001600860006101000a81548160ff021916908315150217905550816006819055508060078190555061065f83610baf565b505050565b60065481565b600160009054906101000a900473ffffffffffffffffffffffffffffffffffffffff1681565b600860009054906101000a900460ff1681565b336000806101000a81548173ffffffffffffffffffffffffffffffffffffffff021916908373ffffffffffffffffffffffffffffffffffffffff160217905550565b6000600460009054906101000a900460ff16801561070557506003544211155b61070e57600080fd5b600554610719610dcb565b02905090565b6000809054906101000a900473ffffffffffffffffffffffffffffffffffffffff1673ffffffffffffffffffffffffffffffffffffffff163373ffffffffffffffffffffffffffffffffffffffff161461077857600080fd5b600460009054906101000a900460ff161580610795575060035442115b61079e57600080fd5b600081116107ab57600080fd5b8060058190555050565b60075481565b6000600460009054906101000a900460ff1680156107db57506003544211155b6107e457600080fd5b60025460035403905090565b600860009054906101000a900460ff1661080957600080fd5b600460009054906101000a900460ff161580610826575060035442115b61082f57600080fd5b6000341161083c57600080fd5b60006005541161084b57600080fd5b6000600554348161085857fe5b049050600654811015801561086f57506007548111155b61087857600080fd5b8042016003819055506001600460006101000a81548160ff02191690831515021790555033600160006101000a81548173ffffffffffffffffffffffffffffffffffffffff021916908373ffffffffffffffffffffffffffffffffffffffff16021790555042600281905550600160009054906101000a900473ffffffffffffffffffffffffffffffffffffffff1673ffffffffffffffffffffffffffffffffffffffff167fb03c9e82198a44a54b2a93499c246bad28b278c3b5c5d4649b8d4f5e148fee3b60025460035460055460405180848152602001838152602001828152602001935050505060405180910390a250565b6000600460009054906101000a900460ff16801561098d57506003544211155b61099657600080fd5b6002544203905090565b6000809054906101000a900473ffffffffffffffffffffffffffffffffffffffff1681565b6000809054906101000a900473ffffffffffffffffffffffffffffffffffffffff1673ffffffffffffffffffffffffffffffffffffffff163373ffffffffffffffffffffffffffffffffffffffff1614610a1e57600080fd5b60035442118015610a3b5750600460009054906101000a900460ff165b610a4457600080fd5b600160009054906101000a900473ffffffffffffffffffffffffffffffffffffffff1673ffffffffffffffffffffffffffffffffffffffff167fdfc5c0e822ca4bd6c981a2df67d25718cdaebc3838b1286c353a7da29f8664a6426040518082815260200191505060405180910390a2610abc610e8d565b565b6000809054906101000a900473ffffffffffffffffffffffffffffffffffffffff1673ffffffffffffffffffffffffffffffffffffffff163373ffffffffffffffffffffffffffffffffffffffff1614610b1757600080fd5b600460009054906101000a900460ff161580610b34575060035442115b610b3d57600080fd5b60008111610b4a57600080fd5b610e1060188281610b5757fe5b0481610b5f57fe5b0460058190555050565b60025481565b6000600460009054906101000a900460ff168015610b8f57506003544211155b610b9857600080fd5b6000610ba261096d565b9050806005540291505090565b6000809054906101000a900473ffffffffffffffffffffffffffffffffffffffff1673ffffffffffffffffffffffffffffffffffffffff163373ffffffffffffffffffffffffffffffffffffffff1614610c0857600080fd5b600460009054906101000a900460ff161580610c25575060035442115b610c2e57600080fd5b60008111610c3b57600080fd5b610e108181610c4657fe5b0460058190555050565b600160009054906101000a900473ffffffffffffffffffffffffffffffffffffffff1673ffffffffffffffffffffffffffffffffffffffff163373ffffffffffffffffffffffffffffffffffffffff1614610caa57600080fd5b600460009054906101000a900460ff168015610cc857506003544211155b610cd157600080fd5b6000809050600654610ce161096d565b1015610cfe57600554600654610cf56107bb565b03029050610d09565b610d066106e5565b90505b600160009054906101000a900473ffffffffffffffffffffffffffffffffffffffff1673ffffffffffffffffffffffffffffffffffffffff167fdfc5c0e822ca4bd6c981a2df67d25718cdaebc3838b1286c353a7da29f8664a6426040518082815260200191505060405180910390a2610d81610e8d565b3373ffffffffffffffffffffffffffffffffffffffff166108fc829081150290604051600060405180830381858888f19350505050158015610dc7573d6000803e3d6000fd5b5050565b6000600460009054906101000a900460ff168015610deb57506003544211155b610df457600080fd5b4260035403905090565b600460009054906101000a900460ff1681565b6000809054906101000a900473ffffffffffffffffffffffffffffffffffffffff1673ffffffffffffffffffffffffffffffffffffffff163373ffffffffffffffffffffffffffffffffffffffff1614610e6a57600080fd5b80600860006101000a81548160ff02191690831515021790555050565b60035481565b6000600460006101000a81548160ff0219169083151502179055506000600160006101000a81548173ffffffffffffffffffffffffffffffffffffffff021916908373ffffffffffffffffffffffffffffffffffffffff1602179055506000600281905550600060038190555056fea265627a7a7231582046049ddfe2703bea8e930ce459dc6fcbc3d7c7a860f870186b44e0e05d1cb2fa64736f6c634300050c0032",
  "source": "pragma solidity ^0.5.0;\r\n//\r\n// Permissions\r\n//\r\n//                                      Owner    Renter   Anyone\r\n// Initialize                             x\r\n// Setup                                  x\r\n// Set rental price                       x\r\n// Make available/unavailable             x\r\n// Force rental end (after period)        x\r\n// Call function with onlyRenter                   x\r\n// End rental before return time                   x\r\n// Rent                                                      x\r\n\r\n//\r\ncontract Adoption {\r\n\r\n\r\n    // The owner of this object\r\n    address public owner;\r\n     // The account currently renting the object\r\n    address public renter;\r\n\r\n    // The date when the latest rental started\r\n    uint public rentalDate;\r\n    // The date when the latest rental is supposed to end\r\n    uint public returnDate;\r\n\r\n    // Whether or not the object is currently rented\r\n    bool public rented;\r\n\r\n    // The price per second of the rental (in wei)\r\n    uint public rentalPrice;\r\n\r\n    //Can not be rented for less time than this.\r\n    //If renter tries to return the object earlier than this time, minimum will be charged anyways\r\n    uint public minRentalTime;\r\n    uint constant MIN_RENTAL_TIME = 60;\r\n\r\n    //Can not be rented for longer than this.\r\n    uint public maxRentalTime;\r\n    uint constant MAX_RENTAL_TIME = 3600 * 24 * 365;\r\n\r\n    // Whether or not the object can be rented. (Owner can take it off to prevent rental)\r\n    // If its currently rented, making it unavailable doesn't stop it from being used\r\n    bool public available;\r\n\r\n    //\r\n    // Events\r\n    //\r\n\r\n    event E_Rent(address indexed _renter, uint _rentalDate, uint _returnDate, uint _rentalPrice);\r\n    event E_ReturnRental(address indexed _renter, uint _returnDate);\r\n\r\n    //\r\n    // MODIFIERS\r\n    //\r\n\r\n    /// @dev allows only the owner to call functions with this modifier\r\n    modifier onlyOwner() {\r\n        require(msg.sender == owner);\r\n        _;\r\n    }\r\n\r\n    /// @dev allows only the current renter to call functions with this modifier\r\n    modifier onlyRenter() {\r\n        require(msg.sender == renter);\r\n        _;\r\n    }\r\n\r\n    /// @dev allows functions with this modifier to be called only when NOT rented\r\n    modifier whenNotRented() {\r\n        require(!rented || now > returnDate);\r\n        _;\r\n    }\r\n\r\n    /// @dev allows functions with this modifier to be called only when rented\r\n    modifier whenRented() {\r\n        require(rented && now <= returnDate);\r\n        _;\r\n    }\r\n\r\n    /// @dev allows functions with this modifier to be called only when object is available\r\n    modifier ifAvailable() {\r\n        require(available);\r\n        _;\r\n    }\r\n\r\n    /////////\r\n\r\n    function Rentablee() public {\r\n        owner = msg.sender;\r\n    }\r\n\r\n    // sets up the rentable car\r\n    // param _pricePerHour the rental price per hour in wei\r\n    // param _minRentalTime the minimum time the object has to be rented for\r\n    // param _maxRentalTime the maximum time the object has to be rented for\r\n    function rentableSetup(uint _pricePerHour, uint _minRentalTime, uint _maxRentalTime) public onlyOwner {\r\n        require(!available); // Take object down before trying to update\r\n        require(_minRentalTime >= MIN_RENTAL_TIME &&\r\n                _maxRentalTime <= MAX_RENTAL_TIME &&\r\n                _minRentalTime < _maxRentalTime);\r\n\r\n        available = true;\r\n        minRentalTime = _minRentalTime;\r\n        maxRentalTime = _maxRentalTime;\r\n\r\n        setRentalPricePerHour(_pricePerHour); // _pricePerHour > 0;\r\n\r\n    }\r\n\r\n    // owner can make the object available/unavailable for rental\r\n    function setAvailable(bool _available) public onlyOwner {\r\n        available = _available;\r\n    }\r\n\r\n    function setRentalPricePerHour(uint _pricePerHour) public onlyOwner whenNotRented{\r\n        require(_pricePerHour > 0);\r\n        rentalPrice = _pricePerHour / 3600;\r\n    }\r\n\r\n    function setRentalPricePerDay(uint _pricePerDay) public onlyOwner whenNotRented{\r\n        require(_pricePerDay > 0);\r\n        rentalPrice = _pricePerDay / 24 / 3600;\r\n    }\r\n\r\n    function setRentalPricePerSecond(uint _pricePerSecond) public onlyOwner whenNotRented{\r\n        require(_pricePerSecond > 0);\r\n        rentalPrice = _pricePerSecond;\r\n    }\r\n\r\n    // rents the object for any given time depending money sent and price of car\r\n    function rent() public payable ifAvailable whenNotRented{\r\n        require (msg.value > 0);\r\n        require (rentalPrice > 0);              // Make sure the rental price was set\r\n\r\n        uint rentalTime = msg.value / rentalPrice;\r\n        require(rentalTime >= minRentalTime && rentalTime <= maxRentalTime);\r\n\r\n        returnDate = now + rentalTime;\r\n\r\n        rented = true;\r\n        renter = msg.sender;\r\n        rentalDate = now;\r\n\r\n    emit E_Rent(renter, rentalDate, returnDate, rentalPrice);\r\n    }\r\n\r\n    // return the elapsed time since the car was rented\r\n    function rentalElapsedTime() public view whenRented returns (uint){\r\n        return now - rentalDate;\r\n    }\r\n\r\n    // return the wei owed by the renter given how much time has passed since the rental\r\n    function rentalAccumulatedPrice() public view whenRented returns (uint){\r\n        uint _rentalElapsedTime = rentalElapsedTime();\r\n        return rentalPrice * _rentalElapsedTime;\r\n    }\r\n\r\n    function rentalBalanceRemaining() public view whenRented returns (uint){\r\n        return rentalTimeRemaining() * rentalPrice;\r\n    }\r\n\r\n    function rentalTimeRemaining() public view whenRented returns (uint){\r\n        return (returnDate - now);\r\n    }\r\n\r\n    function rentalTotalTime() public view whenRented returns (uint){\r\n        return (returnDate - rentalDate);\r\n    }\r\n\r\n\r\n    // can be called by owner of the car if renter doesn't return it.\r\n    function forceRentalEnd() public onlyOwner{\r\n        require(now > returnDate && rented);\r\n\r\n        emit E_ReturnRental(renter, now);\r\n\r\n        resetRental();\r\n    }\r\n\r\n    // the renter can return the car during the rental period and get a refund of the outstanding time\r\n    function returnRental() public onlyRenter whenRented {\r\n        // Calculate rental remaining time and return money to renter\r\n        // If time elapsed is less than the minimum rental time, we charge the minimum\r\n        // Else, we return all pending balance.\r\n        uint fundsToReturn = 0;\r\n        if(rentalElapsedTime() < minRentalTime){\r\n            fundsToReturn = (rentalTotalTime() - minRentalTime) * rentalPrice ;\r\n        }else{\r\n            fundsToReturn = rentalBalanceRemaining();\r\n        }\r\n\r\n        emit E_ReturnRental(renter, now);\r\n\r\n        resetRental();\r\n\r\n        msg.sender.transfer(fundsToReturn);\r\n\r\n\r\n    }\r\n\r\n    // resets the rental variables\r\n    function resetRental() private{\r\n        rented = false;\r\n        renter = address(0);\r\n        rentalDate = 0;\r\n        returnDate = 0;\r\n    }\r\n\r\n}\r\n",
  "sourcePath": "C:\\Users\\m7-66\\Desktop\\TruffleProject-rentCar\\contracts\\Adoption.sol",
  "compiler": {
    "name": "solc",
    "version": "0.5.12+commit.7709ece9.Emscripten.clang"
  },
  "schemaVersion": "3.0.18",
  "updatedAt": "2020-07-15T21:02:17.005Z",
  "devdoc": {
    "methods": {}
  },
  "userdoc": {
    "methods": {
      "Rentablee()": {
        "notice": "//////"
      }
    }
  }
}