{
  "contractName": "Car",
  "abi": [
    {
      "anonymous": false,
      "inputs": [
        {
          "indexed": true,
          "internalType": "address",
          "name": "_renter",
          "type": "address"
        },
        {
          "indexed": false,
          "internalType": "uint256",
          "name": "_rentalDate",
          "type": "uint256"
        },
        {
          "indexed": false,
          "internalType": "uint256",
          "name": "_returnDate",
          "type": "uint256"
        },
        {
          "indexed": false,
          "internalType": "uint256",
          "name": "_rentalPrice",
          "type": "uint256"
        }
      ],
      "name": "E_Rent",
      "type": "event"
    },
    {
      "anonymous": false,
      "inputs": [
        {
          "indexed": true,
          "internalType": "address",
          "name": "_renter",
          "type": "address"
        },
        {
          "indexed": false,
          "internalType": "uint256",
          "name": "_returnDate",
          "type": "uint256"
        }
      ],
      "name": "E_ReturnRental",
      "type": "event"
    },
    {
      "constant": false,
      "inputs": [],
      "name": "Rentablee",
      "outputs": [],
      "payable": false,
      "stateMutability": "nonpayable",
      "type": "function"
    },
    {
      "constant": true,
      "inputs": [],
      "name": "Type",
      "outputs": [
        {
          "internalType": "string",
          "name": "",
          "type": "string"
        }
      ],
      "payable": false,
      "stateMutability": "view",
      "type": "function"
    },
    {
      "constant": true,
      "inputs": [],
      "name": "available",
      "outputs": [
        {
          "internalType": "bool",
          "name": "",
          "type": "bool"
        }
      ],
      "payable": false,
      "stateMutability": "view",
      "type": "function"
    },
    {
      "constant": true,
      "inputs": [],
      "name": "duration",
      "outputs": [
        {
          "internalType": "uint256",
          "name": "",
          "type": "uint256"
        }
      ],
      "payable": false,
      "stateMutability": "view",
      "type": "function"
    },
    {
      "constant": false,
      "inputs": [],
      "name": "forceRentalEnd",
      "outputs": [],
      "payable": false,
      "stateMutability": "nonpayable",
      "type": "function"
    },
    {
      "constant": true,
      "inputs": [],
      "name": "maxRentalTime",
      "outputs": [
        {
          "internalType": "uint256",
          "name": "",
          "type": "uint256"
        }
      ],
      "payable": false,
      "stateMutability": "view",
      "type": "function"
    },
    {
      "constant": true,
      "inputs": [],
      "name": "minRentalTime",
      "outputs": [
        {
          "internalType": "uint256",
          "name": "",
          "type": "uint256"
        }
      ],
      "payable": false,
      "stateMutability": "view",
      "type": "function"
    },
    {
      "constant": true,
      "inputs": [],
      "name": "owner",
      "outputs": [
        {
          "internalType": "address",
          "name": "",
          "type": "address"
        }
      ],
      "payable": false,
      "stateMutability": "view",
      "type": "function"
    },
    {
      "constant": false,
      "inputs": [],
      "name": "rent",
      "outputs": [],
      "payable": true,
      "stateMutability": "payable",
      "type": "function"
    },
    {
      "constant": false,
      "inputs": [
        {
          "internalType": "uint256",
          "name": "_pricePerHour",
          "type": "uint256"
        },
        {
          "internalType": "uint256",
          "name": "_minRentalTime",
          "type": "uint256"
        },
        {
          "internalType": "uint256",
          "name": "_maxRentalTime",
          "type": "uint256"
        }
      ],
      "name": "rentableSetup",
      "outputs": [],
      "payable": false,
      "stateMutability": "nonpayable",
      "type": "function"
    },
    {
      "constant": true,
      "inputs": [],
      "name": "rentalAccumulatedPrice",
      "outputs": [
        {
          "internalType": "uint256",
          "name": "",
          "type": "uint256"
        }
      ],
      "payable": false,
      "stateMutability": "view",
      "type": "function"
    },
    {
      "constant": true,
      "inputs": [],
      "name": "rentalBalanceRemaining",
      "outputs": [
        {
          "internalType": "uint256",
          "name": "",
          "type": "uint256"
        }
      ],
      "payable": false,
      "stateMutability": "view",
      "type": "function"
    },
    {
      "constant": true,
      "inputs": [],
      "name": "rentalDate",
      "outputs": [
        {
          "internalType": "uint256",
          "name": "",
          "type": "uint256"
        }
      ],
      "payable": false,
      "stateMutability": "view",
      "type": "function"
    },
    {
      "constant": true,
      "inputs": [],
      "name": "rentalElapsedTime",
      "outputs": [
        {
          "internalType": "uint256",
          "name": "",
          "type": "uint256"
        }
      ],
      "payable": false,
      "stateMutability": "view",
      "type": "function"
    },
    {
      "constant": true,
      "inputs": [],
      "name": "rentalPrice",
      "outputs": [
        {
          "internalType": "uint256",
          "name": "",
          "type": "uint256"
        }
      ],
      "payable": false,
      "stateMutability": "view",
      "type": "function"
    },
    {
      "constant": true,
      "inputs": [],
      "name": "rentalTimeRemaining",
      "outputs": [
        {
          "internalType": "uint256",
          "name": "",
          "type": "uint256"
        }
      ],
      "payable": false,
      "stateMutability": "view",
      "type": "function"
    },
    {
      "constant": true,
      "inputs": [],
      "name": "rentalTotalTime",
      "outputs": [
        {
          "internalType": "uint256",
          "name": "",
          "type": "uint256"
        }
      ],
      "payable": false,
      "stateMutability": "view",
      "type": "function"
    },
    {
      "constant": true,
      "inputs": [],
      "name": "rented",
      "outputs": [
        {
          "internalType": "bool",
          "name": "",
          "type": "bool"
        }
      ],
      "payable": false,
      "stateMutability": "view",
      "type": "function"
    },
    {
      "constant": true,
      "inputs": [],
      "name": "renter",
      "outputs": [
        {
          "internalType": "address",
          "name": "",
          "type": "address"
        }
      ],
      "payable": false,
      "stateMutability": "view",
      "type": "function"
    },
    {
      "constant": true,
      "inputs": [],
      "name": "returnDate",
      "outputs": [
        {
          "internalType": "uint256",
          "name": "",
          "type": "uint256"
        }
      ],
      "payable": false,
      "stateMutability": "view",
      "type": "function"
    },
    {
      "constant": false,
      "inputs": [],
      "name": "returnRental",
      "outputs": [],
      "payable": false,
      "stateMutability": "nonpayable",
      "type": "function"
    },
    {
      "constant": false,
      "inputs": [
        {
          "internalType": "bool",
          "name": "_available",
          "type": "bool"
        }
      ],
      "name": "setAvailable",
      "outputs": [],
      "payable": false,
      "stateMutability": "nonpayable",
      "type": "function"
    },
    {
      "constant": false,
      "inputs": [
        {
          "internalType": "uint256",
          "name": "_pricePerDay",
          "type": "uint256"
        }
      ],
      "name": "setRentalPricePerDay",
      "outputs": [],
      "payable": false,
      "stateMutability": "nonpayable",
      "type": "function"
    },
    {
      "constant": false,
      "inputs": [
        {
          "internalType": "uint256",
          "name": "_pricePerHour",
          "type": "uint256"
        }
      ],
      "name": "setRentalPricePerHour",
      "outputs": [],
      "payable": false,
      "stateMutability": "nonpayable",
      "type": "function"
    },
    {
      "constant": false,
      "inputs": [
        {
          "internalType": "uint256",
          "name": "_pricePerSecond",
          "type": "uint256"
        }
      ],
      "name": "setRentalPricePerSecond",
      "outputs": [],
      "payable": false,
      "stateMutability": "nonpayable",
      "type": "function"
    },
    {
      "constant": true,
      "inputs": [],
      "name": "size",
      "outputs": [
        {
          "internalType": "string",
          "name": "",
          "type": "string"
        }
      ],
      "payable": false,
      "stateMutability": "view",
      "type": "function"
    },
    {
      "constant": true,
      "inputs": [],
      "name": "timesdriv",
      "outputs": [
        {
          "internalType": "uint256",
          "name": "",
          "type": "uint256"
        }
      ],
      "payable": false,
      "stateMutability": "view",
      "type": "function"
    },
    {
      "constant": false,
      "inputs": [
        {
          "internalType": "string",
          "name": "_Type",
          "type": "string"
        },
        {
          "internalType": "string",
          "name": "_size",
          "type": "string"
        },
        {
          "internalType": "uint256",
          "name": "_duration",
          "type": "uint256"
        }
      ],
      "name": "Carr",
      "outputs": [],
      "payable": false,
      "stateMutability": "nonpayable",
      "type": "function"
    },
    {
      "constant": false,
      "inputs": [],
      "name": "Drivecar",
      "outputs": [
        {
          "internalType": "bool",
          "name": "",
          "type": "bool"
        }
      ],
      "payable": false,
      "stateMutability": "nonpayable",
      "type": "function"
    }
  ],
  "bytecode": "0x608060405234801561001057600080fd5b5061158c806100206000396000f3fe6080604052600436106101c25760003560e01c80638da5cb5b116100f7578063cfb3e70711610095578063e1ad9b7511610064578063e1ad9b75146107f4578063e2df20d114610823578063fc590d0914610860578063ff7620441461088b576101c2565b8063cfb3e70714610758578063d1c13abd14610787578063d67be60a1461079e578063db22032f146107c9576101c2565b8063abfdfbe6116100d1578063abfdfbe61461068c578063ac81f637146106c7578063b6b7032e146106f2578063ccfaa72f1461071d576101c2565b80638da5cb5b1461058e578063949d225d146105e5578063a611e0e614610675576101c2565b80634b0875f81161016457806367c5d1b11161013e57806367c5d1b1146105035780636a9d69a71461052e57806382996d9f1461055957806387d5c6b814610563576101c2565b80634b0875f81461048657806353c2828f1461049d57806353ffe1f9146104c8576101c2565b80632ce7a017116101a05780632ce7a0171461026c5780632e88ab0b1461029757806343942ca1146102ee57806348a0d75414610457576101c2565b80630fb5a6b4146101c75780631c43cd04146101f25780632a0f3c351461021d575b600080fd5b3480156101d357600080fd5b506101dc61091b565b6040518082815260200191505060405180910390f35b3480156101fe57600080fd5b50610207610921565b6040518082815260200191505060405180910390f35b34801561022957600080fd5b5061026a6004803603606081101561024057600080fd5b81019080803590602001909291908035906020019092919080359060200190929190505050610927565b005b34801561027857600080fd5b506102816109fa565b6040518082815260200191505060405180910390f35b3480156102a357600080fd5b506102ac610a00565b604051808273ffffffffffffffffffffffffffffffffffffffff1673ffffffffffffffffffffffffffffffffffffffff16815260200191505060405180910390f35b3480156102fa57600080fd5b506104556004803603606081101561031157600080fd5b810190808035906020019064010000000081111561032e57600080fd5b82018360208201111561034057600080fd5b8035906020019184600183028401116401000000008311171561036257600080fd5b91908080601f016020809104026020016040519081016040528093929190818152602001838380828437600081840152601f19601f820116905080830192505050505050509192919290803590602001906401000000008111156103c557600080fd5b8201836020820111156103d757600080fd5b803590602001918460018302840111640100000000831117156103f957600080fd5b91908080601f016020809104026020016040519081016040528093929190818152602001838380828437600081840152601f19601f82011690508083019250505050505050919291929080359060200190929190505050610a26565b005b34801561046357600080fd5b5061046c610a68565b604051808215151515815260200191505060405180910390f35b34801561049257600080fd5b5061049b610a7b565b005b3480156104a957600080fd5b506104b2610abd565b6040518082815260200191505060405180910390f35b3480156104d457600080fd5b50610501600480360360208110156104eb57600080fd5b8101908080359060200190929190505050610af7565b005b34801561050f57600080fd5b50610518610b8d565b6040518082815260200191505060405180910390f35b34801561053a57600080fd5b50610543610b93565b6040518082815260200191505060405180910390f35b610561610bc8565b005b34801561056f57600080fd5b50610578610d45565b6040518082815260200191505060405180910390f35b34801561059a57600080fd5b506105a3610d78565b604051808273ffffffffffffffffffffffffffffffffffffffff1673ffffffffffffffffffffffffffffffffffffffff16815260200191505060405180910390f35b3480156105f157600080fd5b506105fa610d9d565b6040518080602001828103825283818151815260200191508051906020019080838360005b8381101561063a57808201518184015260208101905061061f565b50505050905090810190601f1680156106675780820380516001836020036101000a031916815260200191505b509250505060405180910390f35b34801561068157600080fd5b5061068a610e3b565b005b34801561069857600080fd5b506106c5600480360360208110156106af57600080fd5b8101908080359060200190929190505050610f34565b005b3480156106d357600080fd5b506106dc610fdf565b6040518082815260200191505060405180910390f35b3480156106fe57600080fd5b50610707610fe5565b6040518082815260200191505060405180910390f35b34801561072957600080fd5b506107566004803603602081101561074057600080fd5b8101908080359060200190929190505050611025565b005b34801561076457600080fd5b5061076d6110c6565b604051808215151515815260200191505060405180910390f35b34801561079357600080fd5b5061079c611162565b005b3480156107aa57600080fd5b506107b36112dd565b6040518082815260200191505060405180910390f35b3480156107d557600080fd5b506107de6112e3565b6040518082815260200191505060405180910390f35b34801561080057600080fd5b50610809611316565b604051808215151515815260200191505060405180910390f35b34801561082f57600080fd5b5061085e6004803603602081101561084657600080fd5b81019080803515159060200190929190505050611329565b005b34801561086c57600080fd5b5061087561139f565b6040518082815260200191505060405180910390f35b34801561089757600080fd5b506108a06113a5565b6040518080602001828103825283818151815260200191508051906020019080838360005b838110156108e05780820151818401526020810190506108c5565b50505050905090810190601f16801561090d5780820380516001836020036101000a031916815260200191505b509250505060405180910390f35b600b5481565b60055481565b6000809054906101000a900473ffffffffffffffffffffffffffffffffffffffff1673ffffffffffffffffffffffffffffffffffffffff163373ffffffffffffffffffffffffffffffffffffffff161461098057600080fd5b600860009054906101000a900460ff161561099a57600080fd5b603c82101580156109af57506301e133808111155b80156109ba57508082105b6109c357600080fd5b6001600860006101000a81548160ff02191690831515021790555081600681905550806007819055506109f583611025565b505050565b60065481565b600160009054906101000a900473ffffffffffffffffffffffffffffffffffffffff1681565b8260099080519060200190610a3c9291906114b2565b5081600a9080519060200190610a539291906114b2565b5080600b819055506000600c81905550505050565b600860009054906101000a900460ff1681565b336000806101000a81548173ffffffffffffffffffffffffffffffffffffffff021916908373ffffffffffffffffffffffffffffffffffffffff160217905550565b6000600460009054906101000a900460ff168015610add57506003544211155b610ae657600080fd5b600554610af16112e3565b02905090565b6000809054906101000a900473ffffffffffffffffffffffffffffffffffffffff1673ffffffffffffffffffffffffffffffffffffffff163373ffffffffffffffffffffffffffffffffffffffff1614610b5057600080fd5b600460009054906101000a900460ff161580610b6d575060035442115b610b7657600080fd5b60008111610b8357600080fd5b8060058190555050565b60075481565b6000600460009054906101000a900460ff168015610bb357506003544211155b610bbc57600080fd5b60025460035403905090565b600860009054906101000a900460ff16610be157600080fd5b600460009054906101000a900460ff161580610bfe575060035442115b610c0757600080fd5b60003411610c1457600080fd5b600060055411610c2357600080fd5b60006005543481610c3057fe5b0490506006548110158015610c4757506007548111155b610c5057600080fd5b8042016003819055506001600460006101000a81548160ff02191690831515021790555033600160006101000a81548173ffffffffffffffffffffffffffffffffffffffff021916908373ffffffffffffffffffffffffffffffffffffffff16021790555042600281905550600160009054906101000a900473ffffffffffffffffffffffffffffffffffffffff1673ffffffffffffffffffffffffffffffffffffffff167fb03c9e82198a44a54b2a93499c246bad28b278c3b5c5d4649b8d4f5e148fee3b60025460035460055460405180848152602001838152602001828152602001935050505060405180910390a250565b6000600460009054906101000a900460ff168015610d6557506003544211155b610d6e57600080fd5b6002544203905090565b6000809054906101000a900473ffffffffffffffffffffffffffffffffffffffff1681565b600a8054600181600116156101000203166002900480601f016020809104026020016040519081016040528092919081815260200182805460018160011615610100020316600290048015610e335780601f10610e0857610100808354040283529160200191610e33565b820191906000526020600020905b815481529060010190602001808311610e1657829003601f168201915b505050505081565b6000809054906101000a900473ffffffffffffffffffffffffffffffffffffffff1673ffffffffffffffffffffffffffffffffffffffff163373ffffffffffffffffffffffffffffffffffffffff1614610e9457600080fd5b60035442118015610eb15750600460009054906101000a900460ff165b610eba57600080fd5b600160009054906101000a900473ffffffffffffffffffffffffffffffffffffffff1673ffffffffffffffffffffffffffffffffffffffff167fdfc5c0e822ca4bd6c981a2df67d25718cdaebc3838b1286c353a7da29f8664a6426040518082815260200191505060405180910390a2610f32611443565b565b6000809054906101000a900473ffffffffffffffffffffffffffffffffffffffff1673ffffffffffffffffffffffffffffffffffffffff163373ffffffffffffffffffffffffffffffffffffffff1614610f8d57600080fd5b600460009054906101000a900460ff161580610faa575060035442115b610fb357600080fd5b60008111610fc057600080fd5b610e1060188281610fcd57fe5b0481610fd557fe5b0460058190555050565b60025481565b6000600460009054906101000a900460ff16801561100557506003544211155b61100e57600080fd5b6000611018610d45565b9050806005540291505090565b6000809054906101000a900473ffffffffffffffffffffffffffffffffffffffff1673ffffffffffffffffffffffffffffffffffffffff163373ffffffffffffffffffffffffffffffffffffffff161461107e57600080fd5b600460009054906101000a900460ff16158061109b575060035442115b6110a457600080fd5b600081116110b157600080fd5b610e1081816110bc57fe5b0460058190555050565b6000600160009054906101000a900473ffffffffffffffffffffffffffffffffffffffff1673ffffffffffffffffffffffffffffffffffffffff163373ffffffffffffffffffffffffffffffffffffffff161461112257600080fd5b600460009054906101000a900460ff16801561114057506003544211155b61114957600080fd5b600c600081548092919060010191905055506001905090565b600160009054906101000a900473ffffffffffffffffffffffffffffffffffffffff1673ffffffffffffffffffffffffffffffffffffffff163373ffffffffffffffffffffffffffffffffffffffff16146111bc57600080fd5b600460009054906101000a900460ff1680156111da57506003544211155b6111e357600080fd5b60008090506006546111f3610d45565b101561121057600554600654611207610b93565b0302905061121b565b611218610abd565b90505b600160009054906101000a900473ffffffffffffffffffffffffffffffffffffffff1673ffffffffffffffffffffffffffffffffffffffff167fdfc5c0e822ca4bd6c981a2df67d25718cdaebc3838b1286c353a7da29f8664a6426040518082815260200191505060405180910390a2611293611443565b3373ffffffffffffffffffffffffffffffffffffffff166108fc829081150290604051600060405180830381858888f193505050501580156112d9573d6000803e3d6000fd5b5050565b600c5481565b6000600460009054906101000a900460ff16801561130357506003544211155b61130c57600080fd5b4260035403905090565b600460009054906101000a900460ff1681565b6000809054906101000a900473ffffffffffffffffffffffffffffffffffffffff1673ffffffffffffffffffffffffffffffffffffffff163373ffffffffffffffffffffffffffffffffffffffff161461138257600080fd5b80600860006101000a81548160ff02191690831515021790555050565b60035481565b60098054600181600116156101000203166002900480601f01602080910402602001604051908101604052809291908181526020018280546001816001161561010002031660029004801561143b5780601f106114105761010080835404028352916020019161143b565b820191906000526020600020905b81548152906001019060200180831161141e57829003601f168201915b505050505081565b6000600460006101000a81548160ff0219169083151502179055506000600160006101000a81548173ffffffffffffffffffffffffffffffffffffffff021916908373ffffffffffffffffffffffffffffffffffffffff16021790555060006002819055506000600381905550565b828054600181600116156101000203166002900490600052602060002090601f016020900481019282601f106114f357805160ff1916838001178555611521565b82800160010185558215611521579182015b82811115611520578251825591602001919060010190611505565b5b50905061152e9190611532565b5090565b61155491905b80821115611550576000816000905550600101611538565b5090565b9056fea265627a7a723158202c452d77f7a9e6d09304ea01d39d165c5b373206f74adfc49e565d74973ad47f64736f6c634300050c0032",
  "source": "pragma solidity ^0.5.0;\r\nimport \"./Adoption.sol\";\r\ncontract Car is Adoption {\r\n\r\n    string public Type;\r\n    string public size;\r\n    uint public duration;\r\n    uint public timesdriv;\r\n\r\n    function Carr(string memory _Type, string memory _size, uint _duration) public {\r\n        Type = _Type;\r\n        size = _size;\r\n        duration = _duration;\r\n        timesdriv = 0;\r\n    }\r\n\r\n    function Drivecar() public onlyRenter whenRented returns(bool){\r\n        timesdriv++;\r\n        return true;\r\n    }\r\n}",
  "sourcePath": "C:/Users/m7-66/Desktop/TruffleProject-rentCar/contracts/car.sol",
  "compiler": {
    "name": "solc",
    "version": "0.5.12+commit.7709ece9.Emscripten.clang"
  },
  "schemaVersion": "3.0.18",
  "updatedAt": "2020-07-15T21:02:17.015Z",
  "devdoc": {
    "methods": {}
  },
  "userdoc": {
    "methods": {
      "Rentablee()": {
        "notice": "//////"
      }
    }
  }
}