{
  "contractName": "Car",
  "abi": [
    {
      "anonymous": false,
      "inputs": [
        {
          "indexed": true,
          "internalType": "address",
          "name": "_renter",
          "type": "address"
        },
        {
          "indexed": false,
          "internalType": "uint256",
          "name": "_rentalDate",
          "type": "uint256"
        },
        {
          "indexed": false,
          "internalType": "uint256",
          "name": "_returnDate",
          "type": "uint256"
        },
        {
          "indexed": false,
          "internalType": "uint256",
          "name": "_rentalPrice",
          "type": "uint256"
        }
      ],
      "name": "E_Rent",
      "type": "event"
    },
    {
      "anonymous": false,
      "inputs": [
        {
          "indexed": true,
          "internalType": "address",
          "name": "_renter",
          "type": "address"
        },
        {
          "indexed": false,
          "internalType": "uint256",
          "name": "_returnDate",
          "type": "uint256"
        }
      ],
      "name": "E_ReturnRental",
      "type": "event"
    },
    {
      "constant": false,
      "inputs": [],
      "name": "Rentablee",
      "outputs": [],
      "payable": false,
      "stateMutability": "nonpayable",
      "type": "function"
    },
    {
      "constant": true,
      "inputs": [],
      "name": "Type",
      "outputs": [
        {
          "internalType": "string",
          "name": "",
          "type": "string"
        }
      ],
      "payable": false,
      "stateMutability": "view",
      "type": "function"
    },
    {
      "constant": true,
      "inputs": [],
      "name": "available",
      "outputs": [
        {
          "internalType": "bool",
          "name": "",
          "type": "bool"
        }
      ],
      "payable": false,
      "stateMutability": "view",
      "type": "function"
    },
    {
      "constant": true,
      "inputs": [],
      "name": "duration",
      "outputs": [
        {
          "internalType": "uint256",
          "name": "",
          "type": "uint256"
        }
      ],
      "payable": false,
      "stateMutability": "view",
      "type": "function"
    },
    {
      "constant": false,
      "inputs": [],
      "name": "forceRentalEnd",
      "outputs": [],
      "payable": false,
      "stateMutability": "nonpayable",
      "type": "function"
    },
    {
      "constant": true,
      "inputs": [],
      "name": "maxRentalTime",
      "outputs": [
        {
          "internalType": "uint256",
          "name": "",
          "type": "uint256"
        }
      ],
      "payable": false,
      "stateMutability": "view",
      "type": "function"
    },
    {
      "constant": true,
      "inputs": [],
      "name": "minRentalTime",
      "outputs": [
        {
          "internalType": "uint256",
          "name": "",
          "type": "uint256"
        }
      ],
      "payable": false,
      "stateMutability": "view",
      "type": "function"
    },
    {
      "constant": true,
      "inputs": [],
      "name": "owner",
      "outputs": [
        {
          "internalType": "address",
          "name": "",
          "type": "address"
        }
      ],
      "payable": false,
      "stateMutability": "view",
      "type": "function"
    },
    {
      "constant": false,
      "inputs": [],
      "name": "rent",
      "outputs": [],
      "payable": true,
      "stateMutability": "payable",
      "type": "function"
    },
    {
      "constant": false,
      "inputs": [
        {
          "internalType": "uint256",
          "name": "_pricePerHour",
          "type": "uint256"
        },
        {
          "internalType": "uint256",
          "name": "_minRentalTime",
          "type": "uint256"
        },
        {
          "internalType": "uint256",
          "name": "_maxRentalTime",
          "type": "uint256"
        }
      ],
      "name": "rentableSetup",
      "outputs": [],
      "payable": false,
      "stateMutability": "nonpayable",
      "type": "function"
    },
    {
      "constant": true,
      "inputs": [],
      "name": "rentalAccumulatedPrice",
      "outputs": [
        {
          "internalType": "uint256",
          "name": "",
          "type": "uint256"
        }
      ],
      "payable": false,
      "stateMutability": "view",
      "type": "function"
    },
    {
      "constant": true,
      "inputs": [],
      "name": "rentalBalanceRemaining",
      "outputs": [
        {
          "internalType": "uint256",
          "name": "",
          "type": "uint256"
        }
      ],
      "payable": false,
      "stateMutability": "view",
      "type": "function"
    },
    {
      "constant": true,
      "inputs": [],
      "name": "rentalDate",
      "outputs": [
        {
          "internalType": "uint256",
          "name": "",
          "type": "uint256"
        }
      ],
      "payable": false,
      "stateMutability": "view",
      "type": "function"
    },
    {
      "constant": true,
      "inputs": [],
      "name": "rentalElapsedTime",
      "outputs": [
        {
          "internalType": "uint256",
          "name": "",
          "type": "uint256"
        }
      ],
      "payable": false,
      "stateMutability": "view",
      "type": "function"
    },
    {
      "constant": true,
      "inputs": [],
      "name": "rentalPrice",
      "outputs": [
        {
          "internalType": "uint256",
          "name": "",
          "type": "uint256"
        }
      ],
      "payable": false,
      "stateMutability": "view",
      "type": "function"
    },
    {
      "constant": true,
      "inputs": [],
      "name": "rentalTimeRemaining",
      "outputs": [
        {
          "internalType": "uint256",
          "name": "",
          "type": "uint256"
        }
      ],
      "payable": false,
      "stateMutability": "view",
      "type": "function"
    },
    {
      "constant": true,
      "inputs": [],
      "name": "rentalTotalTime",
      "outputs": [
        {
          "internalType": "uint256",
          "name": "",
          "type": "uint256"
        }
      ],
      "payable": false,
      "stateMutability": "view",
      "type": "function"
    },
    {
      "constant": true,
      "inputs": [],
      "name": "rented",
      "outputs": [
        {
          "internalType": "bool",
          "name": "",
          "type": "bool"
        }
      ],
      "payable": false,
      "stateMutability": "view",
      "type": "function"
    },
    {
      "constant": true,
      "inputs": [],
      "name": "renter",
      "outputs": [
        {
          "internalType": "address",
          "name": "",
          "type": "address"
        }
      ],
      "payable": false,
      "stateMutability": "view",
      "type": "function"
    },
    {
      "constant": true,
      "inputs": [],
      "name": "returnDate",
      "outputs": [
        {
          "internalType": "uint256",
          "name": "",
          "type": "uint256"
        }
      ],
      "payable": false,
      "stateMutability": "view",
      "type": "function"
    },
    {
      "constant": false,
      "inputs": [],
      "name": "returnRental",
      "outputs": [],
      "payable": false,
      "stateMutability": "nonpayable",
      "type": "function"
    },
    {
      "constant": false,
      "inputs": [
        {
          "internalType": "bool",
          "name": "_available",
          "type": "bool"
        }
      ],
      "name": "setAvailable",
      "outputs": [],
      "payable": false,
      "stateMutability": "nonpayable",
      "type": "function"
    },
    {
      "constant": false,
      "inputs": [
        {
          "internalType": "uint256",
          "name": "_pricePerDay",
          "type": "uint256"
        }
      ],
      "name": "setRentalPricePerDay",
      "outputs": [],
      "payable": false,
      "stateMutability": "nonpayable",
      "type": "function"
    },
    {
      "constant": false,
      "inputs": [
        {
          "internalType": "uint256",
          "name": "_pricePerHour",
          "type": "uint256"
        }
      ],
      "name": "setRentalPricePerHour",
      "outputs": [],
      "payable": false,
      "stateMutability": "nonpayable",
      "type": "function"
    },
    {
      "constant": true,
      "inputs": [],
      "name": "size",
      "outputs": [
        {
          "internalType": "string",
          "name": "",
          "type": "string"
        }
      ],
      "payable": false,
      "stateMutability": "view",
      "type": "function"
    },
    {
      "constant": true,
      "inputs": [],
      "name": "timesdriv",
      "outputs": [
        {
          "internalType": "uint256",
          "name": "",
          "type": "uint256"
        }
      ],
      "payable": false,
      "stateMutability": "view",
      "type": "function"
    },
    {
      "constant": false,
      "inputs": [
        {
          "internalType": "string",
          "name": "_Type",
          "type": "string"
        },
        {
          "internalType": "string",
          "name": "_size",
          "type": "string"
        },
        {
          "internalType": "uint256",
          "name": "_duration",
          "type": "uint256"
        }
      ],
      "name": "Carr",
      "outputs": [],
      "payable": false,
      "stateMutability": "nonpayable",
      "type": "function"
    },
    {
      "constant": false,
      "inputs": [],
      "name": "Drivecar",
      "outputs": [
        {
          "internalType": "bool",
          "name": "",
          "type": "bool"
        }
      ],
      "payable": false,
      "stateMutability": "nonpayable",
      "type": "function"
    }
  ],
  "bytecode": "0x608060405234801561001057600080fd5b506114b0806100206000396000f3fe6080604052600436106101b75760003560e01c8063949d225d116100ec578063d1c13abd1161008a578063e1ad9b7511610064578063e1ad9b75146107ae578063e2df20d1146107dd578063fc590d091461081a578063ff76204414610845576101b7565b8063d1c13abd14610741578063d67be60a14610758578063db22032f14610783576101b7565b8063ac81f637116100c6578063ac81f63714610681578063b6b7032e146106ac578063ccfaa72f146106d7578063cfb3e70714610712576101b7565b8063949d225d1461059f578063a611e0e61461062f578063abfdfbe614610646576101b7565b80634b0875f8116101595780636a9d69a7116101335780636a9d69a7146104e857806382996d9f1461051357806387d5c6b81461051d5780638da5cb5b14610548576101b7565b80634b0875f81461047b57806353c2828f1461049257806367c5d1b1146104bd576101b7565b80632ce7a017116101955780632ce7a017146102615780632e88ab0b1461028c57806343942ca1146102e357806348a0d7541461044c576101b7565b80630fb5a6b4146101bc5780631c43cd04146101e75780632a0f3c3514610212575b600080fd5b3480156101c857600080fd5b506101d16108d5565b6040518082815260200191505060405180910390f35b3480156101f357600080fd5b506101fc6108db565b6040518082815260200191505060405180910390f35b34801561021e57600080fd5b5061025f6004803603606081101561023557600080fd5b810190808035906020019092919080359060200190929190803590602001909291905050506108e1565b005b34801561026d57600080fd5b506102766109b4565b6040518082815260200191505060405180910390f35b34801561029857600080fd5b506102a16109ba565b604051808273ffffffffffffffffffffffffffffffffffffffff1673ffffffffffffffffffffffffffffffffffffffff16815260200191505060405180910390f35b3480156102ef57600080fd5b5061044a6004803603606081101561030657600080fd5b810190808035906020019064010000000081111561032357600080fd5b82018360208201111561033557600080fd5b8035906020019184600183028401116401000000008311171561035757600080fd5b91908080601f016020809104026020016040519081016040528093929190818152602001838380828437600081840152601f19601f820116905080830192505050505050509192919290803590602001906401000000008111156103ba57600080fd5b8201836020820111156103cc57600080fd5b803590602001918460018302840111640100000000831117156103ee57600080fd5b91908080601f016020809104026020016040519081016040528093929190818152602001838380828437600081840152601f19601f820116905080830192505050505050509192919290803590602001909291905050506109e0565b005b34801561045857600080fd5b50610461610a22565b604051808215151515815260200191505060405180910390f35b34801561048757600080fd5b50610490610a35565b005b34801561049e57600080fd5b506104a7610a77565b6040518082815260200191505060405180910390f35b3480156104c957600080fd5b506104d2610ab1565b6040518082815260200191505060405180910390f35b3480156104f457600080fd5b506104fd610ab7565b6040518082815260200191505060405180910390f35b61051b610aec565b005b34801561052957600080fd5b50610532610c69565b6040518082815260200191505060405180910390f35b34801561055457600080fd5b5061055d610c9c565b604051808273ffffffffffffffffffffffffffffffffffffffff1673ffffffffffffffffffffffffffffffffffffffff16815260200191505060405180910390f35b3480156105ab57600080fd5b506105b4610cc1565b6040518080602001828103825283818151815260200191508051906020019080838360005b838110156105f45780820151818401526020810190506105d9565b50505050905090810190601f1680156106215780820380516001836020036101000a031916815260200191505b509250505060405180910390f35b34801561063b57600080fd5b50610644610d5f565b005b34801561065257600080fd5b5061067f6004803603602081101561066957600080fd5b8101908080359060200190929190505050610e58565b005b34801561068d57600080fd5b50610696610f03565b6040518082815260200191505060405180910390f35b3480156106b857600080fd5b506106c1610f09565b6040518082815260200191505060405180910390f35b3480156106e357600080fd5b50610710600480360360208110156106fa57600080fd5b8101908080359060200190929190505050610f49565b005b34801561071e57600080fd5b50610727610fea565b604051808215151515815260200191505060405180910390f35b34801561074d57600080fd5b50610756611086565b005b34801561076457600080fd5b5061076d611201565b6040518082815260200191505060405180910390f35b34801561078f57600080fd5b50610798611207565b6040518082815260200191505060405180910390f35b3480156107ba57600080fd5b506107c361123a565b604051808215151515815260200191505060405180910390f35b3480156107e957600080fd5b506108186004803603602081101561080057600080fd5b8101908080351515906020019092919050505061124d565b005b34801561082657600080fd5b5061082f6112c3565b6040518082815260200191505060405180910390f35b34801561085157600080fd5b5061085a6112c9565b6040518080602001828103825283818151815260200191508051906020019080838360005b8381101561089a57808201518184015260208101905061087f565b50505050905090810190601f1680156108c75780820380516001836020036101000a031916815260200191505b509250505060405180910390f35b600b5481565b60055481565b6000809054906101000a900473ffffffffffffffffffffffffffffffffffffffff1673ffffffffffffffffffffffffffffffffffffffff163373ffffffffffffffffffffffffffffffffffffffff161461093a57600080fd5b600860009054906101000a900460ff161561095457600080fd5b603c821015801561096957506301e133808111155b801561097457508082105b61097d57600080fd5b6001600860006101000a81548160ff02191690831515021790555081600681905550806007819055506109af83610f49565b505050565b60065481565b600160009054906101000a900473ffffffffffffffffffffffffffffffffffffffff1681565b82600990805190602001906109f69291906113d6565b5081600a9080519060200190610a0d9291906113d6565b5080600b819055506000600c81905550505050565b600860009054906101000a900460ff1681565b336000806101000a81548173ffffffffffffffffffffffffffffffffffffffff021916908373ffffffffffffffffffffffffffffffffffffffff160217905550565b6000600460009054906101000a900460ff168015610a9757506003544211155b610aa057600080fd5b600554610aab611207565b02905090565b60075481565b6000600460009054906101000a900460ff168015610ad757506003544211155b610ae057600080fd5b60025460035403905090565b600860009054906101000a900460ff16610b0557600080fd5b600460009054906101000a900460ff161580610b22575060035442115b610b2b57600080fd5b60003411610b3857600080fd5b600060055411610b4757600080fd5b60006005543481610b5457fe5b0490506006548110158015610b6b57506007548111155b610b7457600080fd5b8042016003819055506001600460006101000a81548160ff02191690831515021790555033600160006101000a81548173ffffffffffffffffffffffffffffffffffffffff021916908373ffffffffffffffffffffffffffffffffffffffff16021790555042600281905550600160009054906101000a900473ffffffffffffffffffffffffffffffffffffffff1673ffffffffffffffffffffffffffffffffffffffff167fb03c9e82198a44a54b2a93499c246bad28b278c3b5c5d4649b8d4f5e148fee3b60025460035460055460405180848152602001838152602001828152602001935050505060405180910390a250565b6000600460009054906101000a900460ff168015610c8957506003544211155b610c9257600080fd5b6002544203905090565b6000809054906101000a900473ffffffffffffffffffffffffffffffffffffffff1681565b600a8054600181600116156101000203166002900480601f016020809104026020016040519081016040528092919081815260200182805460018160011615610100020316600290048015610d575780601f10610d2c57610100808354040283529160200191610d57565b820191906000526020600020905b815481529060010190602001808311610d3a57829003601f168201915b505050505081565b6000809054906101000a900473ffffffffffffffffffffffffffffffffffffffff1673ffffffffffffffffffffffffffffffffffffffff163373ffffffffffffffffffffffffffffffffffffffff1614610db857600080fd5b60035442118015610dd55750600460009054906101000a900460ff165b610dde57600080fd5b600160009054906101000a900473ffffffffffffffffffffffffffffffffffffffff1673ffffffffffffffffffffffffffffffffffffffff167fdfc5c0e822ca4bd6c981a2df67d25718cdaebc3838b1286c353a7da29f8664a6426040518082815260200191505060405180910390a2610e56611367565b565b6000809054906101000a900473ffffffffffffffffffffffffffffffffffffffff1673ffffffffffffffffffffffffffffffffffffffff163373ffffffffffffffffffffffffffffffffffffffff1614610eb157600080fd5b600460009054906101000a900460ff161580610ece575060035442115b610ed757600080fd5b60008111610ee457600080fd5b610e1060188281610ef157fe5b0481610ef957fe5b0460058190555050565b60025481565b6000600460009054906101000a900460ff168015610f2957506003544211155b610f3257600080fd5b6000610f3c610c69565b9050806005540291505090565b6000809054906101000a900473ffffffffffffffffffffffffffffffffffffffff1673ffffffffffffffffffffffffffffffffffffffff163373ffffffffffffffffffffffffffffffffffffffff1614610fa257600080fd5b600460009054906101000a900460ff161580610fbf575060035442115b610fc857600080fd5b60008111610fd557600080fd5b610e108181610fe057fe5b0460058190555050565b6000600160009054906101000a900473ffffffffffffffffffffffffffffffffffffffff1673ffffffffffffffffffffffffffffffffffffffff163373ffffffffffffffffffffffffffffffffffffffff161461104657600080fd5b600460009054906101000a900460ff16801561106457506003544211155b61106d57600080fd5b600c600081548092919060010191905055506001905090565b600160009054906101000a900473ffffffffffffffffffffffffffffffffffffffff1673ffffffffffffffffffffffffffffffffffffffff163373ffffffffffffffffffffffffffffffffffffffff16146110e057600080fd5b600460009054906101000a900460ff1680156110fe57506003544211155b61110757600080fd5b6000809050600654611117610c69565b10156111345760055460065461112b610ab7565b0302905061113f565b61113c610a77565b90505b600160009054906101000a900473ffffffffffffffffffffffffffffffffffffffff1673ffffffffffffffffffffffffffffffffffffffff167fdfc5c0e822ca4bd6c981a2df67d25718cdaebc3838b1286c353a7da29f8664a6426040518082815260200191505060405180910390a26111b7611367565b3373ffffffffffffffffffffffffffffffffffffffff166108fc829081150290604051600060405180830381858888f193505050501580156111fd573d6000803e3d6000fd5b5050565b600c5481565b6000600460009054906101000a900460ff16801561122757506003544211155b61123057600080fd5b4260035403905090565b600460009054906101000a900460ff1681565b6000809054906101000a900473ffffffffffffffffffffffffffffffffffffffff1673ffffffffffffffffffffffffffffffffffffffff163373ffffffffffffffffffffffffffffffffffffffff16146112a657600080fd5b80600860006101000a81548160ff02191690831515021790555050565b60035481565b60098054600181600116156101000203166002900480601f01602080910402602001604051908101604052809291908181526020018280546001816001161561010002031660029004801561135f5780601f106113345761010080835404028352916020019161135f565b820191906000526020600020905b81548152906001019060200180831161134257829003601f168201915b505050505081565b6000600460006101000a81548160ff0219169083151502179055506000600160006101000a81548173ffffffffffffffffffffffffffffffffffffffff021916908373ffffffffffffffffffffffffffffffffffffffff16021790555060006002819055506000600381905550565b828054600181600116156101000203166002900490600052602060002090601f016020900481019282601f1061141757805160ff1916838001178555611445565b82800160010185558215611445579182015b82811115611444578251825591602001919060010190611429565b5b5090506114529190611456565b5090565b61147891905b8082111561147457600081600090555060010161145c565b5090565b9056fea265627a7a72315820c8141cd987e6659f02edf9675ad72afd5523dd9ede80a4b8db20b4423c344fa964736f6c634300050c0032",
  "source": "pragma solidity ^0.5.0;\r\nimport \"./Adoption.sol\";\r\ncontract Car is Adoption {\r\n\r\n    string public Type;\r\n    string public size;\r\n    uint public duration;\r\n    uint public timesdriv;\r\n\r\n    function Carr(string memory _Type, string memory _size, uint _duration) public {\r\n        Type = _Type;\r\n        size = _size;\r\n        duration = _duration;\r\n        timesdriv = 0;\r\n    }\r\n\r\n    function Drivecar() public onlyRenter whenRented returns(bool){\r\n        timesdriv++;\r\n        return true;\r\n    }\r\n}",
  "sourcePath": "C:/Users/m7-66/Desktop/TruffleProject-rentCar/contracts/car.sol",
  "compiler": {
    "name": "solc",
    "version": "0.5.12+commit.7709ece9.Emscripten.clang"
  },
  "schemaVersion": "3.0.18",
  "updatedAt": "2020-07-16T08:26:35.703Z",
  "devdoc": {
    "methods": {}
  },
  "userdoc": {
    "methods": {
      "Rentablee()": {
        "notice": "//////"
      }
    }
  }
}