{
  "contractName": "CarContract",
  "abi": [
    {
      "constant": false,
      "inputs": [
        {
          "internalType": "uint64",
          "name": "vin_",
          "type": "uint64"
        },
        {
          "internalType": "string",
          "name": "newCarMake",
          "type": "string"
        },
        {
          "internalType": "string",
          "name": "newCarModel",
          "type": "string"
        }
      ],
      "name": "CarContractt",
      "outputs": [],
      "payable": false,
      "stateMutability": "nonpayable",
      "type": "function"
    },
    {
      "constant": true,
      "inputs": [
        {
          "internalType": "uint64",
          "name": "vin_",
          "type": "uint64"
        }
      ],
      "name": "getAllIndexes",
      "outputs": [
        {
          "internalType": "uint8",
          "name": "ownerIndex",
          "type": "uint8"
        },
        {
          "internalType": "uint8",
          "name": "airbagIndex_",
          "type": "uint8"
        },
        {
          "internalType": "uint8",
          "name": "engineIndex_",
          "type": "uint8"
        },
        {
          "internalType": "uint8",
          "name": "tiresIndex",
          "type": "uint8"
        }
      ],
      "payable": false,
      "stateMutability": "view",
      "type": "function"
    },
    {
      "constant": true,
      "inputs": [
        {
          "internalType": "uint64",
          "name": "vin_",
          "type": "uint64"
        }
      ],
      "name": "getStaticCarInfo",
      "outputs": [
        {
          "internalType": "uint64",
          "name": "vinOut",
          "type": "uint64"
        },
        {
          "internalType": "string",
          "name": "_carMake",
          "type": "string"
        },
        {
          "internalType": "string",
          "name": "_carModel",
          "type": "string"
        }
      ],
      "payable": false,
      "stateMutability": "view",
      "type": "function"
    },
    {
      "constant": true,
      "inputs": [
        {
          "internalType": "uint64",
          "name": "vin_",
          "type": "uint64"
        },
        {
          "internalType": "uint8",
          "name": "arrayIndex_",
          "type": "uint8"
        }
      ],
      "name": "getAirbag",
      "outputs": [
        {
          "internalType": "string",
          "name": "_part",
          "type": "string"
        },
        {
          "internalType": "uint256",
          "name": "_timeInstalled",
          "type": "uint256"
        },
        {
          "internalType": "uint256",
          "name": "_carMileage",
          "type": "uint256"
        },
        {
          "internalType": "string",
          "name": "_whoInstalledPart",
          "type": "string"
        }
      ],
      "payable": false,
      "stateMutability": "view",
      "type": "function"
    },
    {
      "constant": true,
      "inputs": [
        {
          "internalType": "uint64",
          "name": "vin_",
          "type": "uint64"
        },
        {
          "internalType": "uint8",
          "name": "arrayIndex_",
          "type": "uint8"
        }
      ],
      "name": "getEngine",
      "outputs": [
        {
          "internalType": "string",
          "name": "_part",
          "type": "string"
        },
        {
          "internalType": "uint256",
          "name": "_timeInstalled",
          "type": "uint256"
        },
        {
          "internalType": "uint256",
          "name": "_carMileage",
          "type": "uint256"
        },
        {
          "internalType": "string",
          "name": "_whoInstalledPart",
          "type": "string"
        }
      ],
      "payable": false,
      "stateMutability": "view",
      "type": "function"
    },
    {
      "constant": true,
      "inputs": [
        {
          "internalType": "uint64",
          "name": "vin_",
          "type": "uint64"
        },
        {
          "internalType": "uint8",
          "name": "arrayIndex_",
          "type": "uint8"
        }
      ],
      "name": "getTires",
      "outputs": [
        {
          "internalType": "string",
          "name": "_part",
          "type": "string"
        },
        {
          "internalType": "uint256",
          "name": "_timeInstalled",
          "type": "uint256"
        },
        {
          "internalType": "uint256",
          "name": "_carMileage",
          "type": "uint256"
        },
        {
          "internalType": "string",
          "name": "_whoInstalledPart",
          "type": "string"
        }
      ],
      "payable": false,
      "stateMutability": "view",
      "type": "function"
    },
    {
      "constant": true,
      "inputs": [
        {
          "internalType": "uint64",
          "name": "vin_",
          "type": "uint64"
        },
        {
          "internalType": "uint8",
          "name": "arrayIndex_",
          "type": "uint8"
        }
      ],
      "name": "getOwner",
      "outputs": [
        {
          "internalType": "address",
          "name": "_ownerAddress",
          "type": "address"
        },
        {
          "internalType": "uint256",
          "name": "_timeBought",
          "type": "uint256"
        },
        {
          "internalType": "uint256",
          "name": "_carMileage",
          "type": "uint256"
        }
      ],
      "payable": false,
      "stateMutability": "view",
      "type": "function"
    },
    {
      "constant": false,
      "inputs": [
        {
          "internalType": "uint64",
          "name": "vin_",
          "type": "uint64"
        },
        {
          "internalType": "address",
          "name": "newOwner",
          "type": "address"
        },
        {
          "internalType": "uint256",
          "name": "currentMileage",
          "type": "uint256"
        }
      ],
      "name": "changeOwner",
      "outputs": [],
      "payable": false,
      "stateMutability": "nonpayable",
      "type": "function"
    },
    {
      "constant": false,
      "inputs": [
        {
          "internalType": "uint64",
          "name": "vin_",
          "type": "uint64"
        },
        {
          "internalType": "string",
          "name": "newAirbag",
          "type": "string"
        },
        {
          "internalType": "uint256",
          "name": "currentMileage",
          "type": "uint256"
        },
        {
          "internalType": "string",
          "name": "newMechanic",
          "type": "string"
        }
      ],
      "name": "changeAirbag",
      "outputs": [],
      "payable": false,
      "stateMutability": "nonpayable",
      "type": "function"
    },
    {
      "constant": false,
      "inputs": [
        {
          "internalType": "uint64",
          "name": "vin_",
          "type": "uint64"
        },
        {
          "internalType": "string",
          "name": "newEngine",
          "type": "string"
        },
        {
          "internalType": "uint256",
          "name": "currentMileage",
          "type": "uint256"
        },
        {
          "internalType": "string",
          "name": "newMechanic",
          "type": "string"
        }
      ],
      "name": "changeEngine",
      "outputs": [],
      "payable": false,
      "stateMutability": "nonpayable",
      "type": "function"
    },
    {
      "constant": false,
      "inputs": [
        {
          "internalType": "uint64",
          "name": "vin_",
          "type": "uint64"
        },
        {
          "internalType": "string",
          "name": "newTires",
          "type": "string"
        },
        {
          "internalType": "uint256",
          "name": "currentMileage",
          "type": "uint256"
        },
        {
          "internalType": "string",
          "name": "newMechanic",
          "type": "string"
        }
      ],
      "name": "changeTires",
      "outputs": [],
      "payable": false,
      "stateMutability": "nonpayable",
      "type": "function"
    }
  ],
  "bytecode": "0x608060405234801561001057600080fd5b50612133806100206000396000f3fe608060405234801561001057600080fd5b50600436106100a95760003560e01c80635b0ab692116100715780635b0ab6921461067757806372c8a518146107af578063a78a43c614610915578063d3141000146109a8578063d9758e8714610b18578063fb5d19f914610c50576100a9565b8063121866f3146100ae5780631f86febf1461021e5780632ddd709f146103565780633ee193661461048e57806341766ac8146105fe575b600080fd5b61021c600480360360808110156100c457600080fd5b81019080803567ffffffffffffffff169060200190929190803590602001906401000000008111156100f557600080fd5b82018360208201111561010757600080fd5b8035906020019184600183028401116401000000008311171561012957600080fd5b91908080601f016020809104026020016040519081016040528093929190818152602001838380828437600081840152601f19601f820116905080830192505050505050509192919290803590602001909291908035906020019064010000000081111561019657600080fd5b8201836020820111156101a857600080fd5b803590602001918460018302840111640100000000831117156101ca57600080fd5b91908080601f016020809104026020016040519081016040528093929190818152602001838380828437600081840152601f19601f820116905080830192505050505050509192919290505050610cb2565b005b6102616004803603604081101561023457600080fd5b81019080803567ffffffffffffffff169060200190929190803560ff169060200190929190505050610e81565b604051808060200185815260200184815260200180602001838103835287818151815260200191508051906020019080838360005b838110156102b1578082015181840152602081019050610296565b50505050905090810190601f1680156102de5780820380516001836020036101000a031916815260200191505b50838103825284818151815260200191508051906020019080838360005b838110156103175780820151818401526020810190506102fc565b50505050905090810190601f1680156103445780820380516001836020036101000a031916815260200191505b50965050505050505060405180910390f35b6103996004803603604081101561036c57600080fd5b81019080803567ffffffffffffffff169060200190929190803560ff1690602001909291905050506110e8565b604051808060200185815260200184815260200180602001838103835287818151815260200191508051906020019080838360005b838110156103e95780820151818401526020810190506103ce565b50505050905090810190601f1680156104165780820380516001836020036101000a031916815260200191505b50838103825284818151815260200191508051906020019080838360005b8381101561044f578082015181840152602081019050610434565b50505050905090810190601f16801561047c5780820380516001836020036101000a031916815260200191505b50965050505050505060405180910390f35b6105fc600480360360808110156104a457600080fd5b81019080803567ffffffffffffffff169060200190929190803590602001906401000000008111156104d557600080fd5b8201836020820111156104e757600080fd5b8035906020019184600183028401116401000000008311171561050957600080fd5b91908080601f016020809104026020016040519081016040528093929190818152602001838380828437600081840152601f19601f820116905080830192505050505050509192919290803590602001909291908035906020019064010000000081111561057657600080fd5b82018360208201111561058857600080fd5b803590602001918460018302840111640100000000831117156105aa57600080fd5b91908080601f016020809104026020016040519081016040528093929190818152602001838380828437600081840152601f19601f820116905080830192505050505050509192919290505050611353565b005b6106346004803603602081101561061457600080fd5b81019080803567ffffffffffffffff169060200190929190505050611527565b604051808560ff1660ff1681526020018460ff1660ff1681526020018360ff1660ff1681526020018260ff1660ff16815260200194505050505060405180910390f35b6106ad6004803603602081101561068d57600080fd5b81019080803567ffffffffffffffff1690602001909291905050506115af565b604051808467ffffffffffffffff1667ffffffffffffffff1681526020018060200180602001838103835285818151815260200191508051906020019080838360005b8381101561070b5780820151818401526020810190506106f0565b50505050905090810190601f1680156107385780820380516001836020036101000a031916815260200191505b50838103825284818151815260200191508051906020019080838360005b83811015610771578082015181840152602081019050610756565b50505050905090810190601f16801561079e5780820380516001836020036101000a031916815260200191505b509550505050505060405180910390f35b610913600480360360608110156107c557600080fd5b81019080803567ffffffffffffffff169060200190929190803590602001906401000000008111156107f657600080fd5b82018360208201111561080857600080fd5b8035906020019184600183028401116401000000008311171561082a57600080fd5b91908080601f016020809104026020016040519081016040528093929190818152602001838380828437600081840152601f19601f8201169050808301925050505050505091929192908035906020019064010000000081111561088d57600080fd5b82018360208201111561089f57600080fd5b803590602001918460018302840111640100000000831117156108c157600080fd5b91908080601f016020809104026020016040519081016040528093929190818152602001838380828437600081840152601f19601f820116905080830192505050505050509192919290505050611789565b005b6109586004803603604081101561092b57600080fd5b81019080803567ffffffffffffffff169060200190929190803560ff16906020019092919050505061195b565b604051808473ffffffffffffffffffffffffffffffffffffffff1673ffffffffffffffffffffffffffffffffffffffff168152602001838152602001828152602001935050505060405180910390f35b610b16600480360360808110156109be57600080fd5b81019080803567ffffffffffffffff169060200190929190803590602001906401000000008111156109ef57600080fd5b820183602082011115610a0157600080fd5b80359060200191846001830284011164010000000083111715610a2357600080fd5b91908080601f016020809104026020016040519081016040528093929190818152602001838380828437600081840152601f19601f8201169050808301925050505050505091929192908035906020019092919080359060200190640100000000811115610a9057600080fd5b820183602082011115610aa257600080fd5b80359060200191846001830284011164010000000083111715610ac457600080fd5b91908080601f016020809104026020016040519081016040528093929190818152602001838380828437600081840152601f19601f820116905080830192505050505050509192919290505050611a8e565b005b610b5b60048036036040811015610b2e57600080fd5b81019080803567ffffffffffffffff169060200190929190803560ff169060200190929190505050611c5d565b604051808060200185815260200184815260200180602001838103835287818151815260200191508051906020019080838360005b83811015610bab578082015181840152602081019050610b90565b50505050905090810190601f168015610bd85780820380516001836020036101000a031916815260200191505b50838103825284818151815260200191508051906020019080838360005b83811015610c11578082015181840152602081019050610bf6565b50505050905090810190601f168015610c3e5780820380516001836020036101000a031916815260200191505b50965050505050505060405180910390f35b610cb060048036036060811015610c6657600080fd5b81019080803567ffffffffffffffff169060200190929190803573ffffffffffffffffffffffffffffffffffffffff16906020019092919080359060200190929190505050611ec4565b005b60008060008667ffffffffffffffff1667ffffffffffffffff168152602001908152602001600020905060008160000160009054906101000a900460ff16905081610323018160ff1660648110610d0557fe5b6003020160000160009054906101000a900473ffffffffffffffffffffffffffffffffffffffff1673ffffffffffffffffffffffffffffffffffffffff163373ffffffffffffffffffffffffffffffffffffffff1614610d6157fe5b600082600301600060328110610d7357fe5b600402016000018054600181600116156101000203166002900490501115610dca5781600001600181819054906101000a900460ff168092919060010191906101000a81548160ff021916908360ff160217905550505b60008260000160019054906101000a900460ff16905085836003018260ff1660328110610df357fe5b600402016000019080519060200190610e0d929190612059565b5042836003018260ff1660328110610e2157fe5b600402016001018190555084836003018260ff1660328110610e3f57fe5b600402016002018190555083836003018260ff1660328110610e5d57fe5b600402016003019080519060200190610e77929190612059565b5050505050505050565b6060600080606060008060008867ffffffffffffffff1667ffffffffffffffff168152602001908152602001600020905060008160000160009054906101000a900460ff16905081610323018160ff1660648110610edb57fe5b6003020160000160009054906101000a900473ffffffffffffffffffffffffffffffffffffffff1673ffffffffffffffffffffffffffffffffffffffff163373ffffffffffffffffffffffffffffffffffffffff1614610f3757fe5b8160cb018760ff1660328110610f4957fe5b600402016000018260cb018860ff1660328110610f6257fe5b60040201600101548360cb018960ff1660328110610f7c57fe5b60040201600201548460cb018a60ff1660328110610f9657fe5b60040201600301838054600181600116156101000203166002900480601f0160208091040260200160405190810160405280929190818152602001828054600181600116156101000203166002900480156110325780601f1061100757610100808354040283529160200191611032565b820191906000526020600020905b81548152906001019060200180831161101557829003601f168201915b50505050509350808054600181600116156101000203166002900480601f0160208091040260200160405190810160405280929190818152602001828054600181600116156101000203166002900480156110ce5780601f106110a3576101008083540402835291602001916110ce565b820191906000526020600020905b8154815290600101906020018083116110b157829003601f168201915b505050505090509550955095509550505092959194509250565b6060600080606060008060008867ffffffffffffffff1667ffffffffffffffff168152602001908152602001600020905060008160000160009054906101000a900460ff16905081610323018160ff166064811061114257fe5b6003020160000160009054906101000a900473ffffffffffffffffffffffffffffffffffffffff1673ffffffffffffffffffffffffffffffffffffffff163373ffffffffffffffffffffffffffffffffffffffff161461119e57fe5b81610193018760ff16606481106111b157fe5b6004020160000182610193018860ff16606481106111cb57fe5b600402016001015483610193018960ff16606481106111e657fe5b600402016002015484610193018a60ff166064811061120157fe5b60040201600301838054600181600116156101000203166002900480601f01602080910402602001604051908101604052809291908181526020018280546001816001161561010002031660029004801561129d5780601f106112725761010080835404028352916020019161129d565b820191906000526020600020905b81548152906001019060200180831161128057829003601f168201915b50505050509350808054600181600116156101000203166002900480601f0160208091040260200160405190810160405280929190818152602001828054600181600116156101000203166002900480156113395780601f1061130e57610100808354040283529160200191611339565b820191906000526020600020905b81548152906001019060200180831161131c57829003601f168201915b505050505090509550955095509550505092959194509250565b60008060008667ffffffffffffffff1667ffffffffffffffff168152602001908152602001600020905060008160000160009054906101000a900460ff16905081610323018160ff16606481106113a657fe5b6003020160000160009054906101000a900473ffffffffffffffffffffffffffffffffffffffff1673ffffffffffffffffffffffffffffffffffffffff163373ffffffffffffffffffffffffffffffffffffffff161461140257fe5b6000826101930160006064811061141557fe5b60040201600001805460018160011615610100020316600290049050111561146c5781600001600381819054906101000a900460ff168092919060010191906101000a81548160ff021916908360ff160217905550505b60008260000160039054906101000a900460ff1690508583610193018260ff166064811061149657fe5b6004020160000190805190602001906114b0929190612059565b504283610193018260ff16606481106114c557fe5b60040201600101819055508483610193018260ff16606481106114e457fe5b60040201600201819055508383610193018260ff166064811061150357fe5b60040201600301908051906020019061151d929190612059565b5050505050505050565b60008060008060008060008767ffffffffffffffff1667ffffffffffffffff16815260200190815260200160002090508060000160009054906101000a900460ff168160000160019054906101000a900460ff168260000160029054906101000a900460ff168360000160039054906101000a900460ff169450945094509450509193509193565b60006060806000808567ffffffffffffffff1667ffffffffffffffff16815260200190815260200160002060000160049054906101000a900467ffffffffffffffff166000808667ffffffffffffffff1667ffffffffffffffff1681526020019081526020016000206001016000808767ffffffffffffffff1667ffffffffffffffff168152602001908152602001600020600201818054600181600116156101000203166002900480601f0160208091040260200160405190810160405280929190818152602001828054600181600116156101000203166002900480156116d95780601f106116ae576101008083540402835291602001916116d9565b820191906000526020600020905b8154815290600101906020018083116116bc57829003601f168201915b50505050509150808054600181600116156101000203166002900480601f0160208091040260200160405190810160405280929190818152602001828054600181600116156101000203166002900480156117755780601f1061174a57610100808354040283529160200191611775565b820191906000526020600020905b81548152906001019060200180831161175857829003601f168201915b505050505090509250925092509193909250565b826000808567ffffffffffffffff1667ffffffffffffffff16815260200190815260200160002060000160046101000a81548167ffffffffffffffff021916908367ffffffffffffffff160217905550816000808567ffffffffffffffff1667ffffffffffffffff1681526020019081526020016000206001019080519060200190611816929190612059565b50806000808567ffffffffffffffff1667ffffffffffffffff1681526020019081526020016000206002019080519060200190611854929190612059565b50336000808567ffffffffffffffff1667ffffffffffffffff1681526020019081526020016000206103230160006064811061188c57fe5b6003020160000160006101000a81548173ffffffffffffffffffffffffffffffffffffffff021916908373ffffffffffffffffffffffffffffffffffffffff160217905550426000808567ffffffffffffffff1667ffffffffffffffff1681526020019081526020016000206103230160006064811061190857fe5b600302016001018190555060008060008567ffffffffffffffff1667ffffffffffffffff1681526020019081526020016000206103230160006064811061194b57fe5b6003020160020181905550505050565b6000806000806000808767ffffffffffffffff1667ffffffffffffffff168152602001908152602001600020905060008160000160009054906101000a900460ff16905081610323018160ff16606481106119b257fe5b6003020160000160009054906101000a900473ffffffffffffffffffffffffffffffffffffffff1673ffffffffffffffffffffffffffffffffffffffff163373ffffffffffffffffffffffffffffffffffffffff1614611a0e57fe5b81610323018660ff1660648110611a2157fe5b6003020160000160009054906101000a900473ffffffffffffffffffffffffffffffffffffffff1682610323018760ff1660648110611a5c57fe5b600302016001015483610323018860ff1660648110611a7757fe5b600302016002015494509450945050509250925092565b60008060008667ffffffffffffffff1667ffffffffffffffff168152602001908152602001600020905060008160000160009054906101000a900460ff16905081610323018160ff1660648110611ae157fe5b6003020160000160009054906101000a900473ffffffffffffffffffffffffffffffffffffffff1673ffffffffffffffffffffffffffffffffffffffff163373ffffffffffffffffffffffffffffffffffffffff1614611b3d57fe5b60008260cb01600060328110611b4f57fe5b600402016000018054600181600116156101000203166002900490501115611ba65781600001600281819054906101000a900460ff168092919060010191906101000a81548160ff021916908360ff160217905550505b60008260000160029054906101000a900460ff169050858360cb018260ff1660328110611bcf57fe5b600402016000019080519060200190611be9929190612059565b50428360cb018260ff1660328110611bfd57fe5b6004020160010181905550848360cb018260ff1660328110611c1b57fe5b6004020160020181905550838360cb018260ff1660328110611c3957fe5b600402016003019080519060200190611c53929190612059565b5050505050505050565b6060600080606060008060008867ffffffffffffffff1667ffffffffffffffff168152602001908152602001600020905060008160000160009054906101000a900460ff16905081610323018160ff1660648110611cb757fe5b6003020160000160009054906101000a900473ffffffffffffffffffffffffffffffffffffffff1673ffffffffffffffffffffffffffffffffffffffff163373ffffffffffffffffffffffffffffffffffffffff1614611d1357fe5b816003018760ff1660328110611d2557fe5b60040201600001826003018860ff1660328110611d3e57fe5b6004020160010154836003018960ff1660328110611d5857fe5b6004020160020154846003018a60ff1660328110611d7257fe5b60040201600301838054600181600116156101000203166002900480601f016020809104026020016040519081016040528092919081815260200182805460018160011615610100020316600290048015611e0e5780601f10611de357610100808354040283529160200191611e0e565b820191906000526020600020905b815481529060010190602001808311611df157829003601f168201915b50505050509350808054600181600116156101000203166002900480601f016020809104026020016040519081016040528092919081815260200182805460018160011615610100020316600290048015611eaa5780601f10611e7f57610100808354040283529160200191611eaa565b820191906000526020600020905b815481529060010190602001808311611e8d57829003601f168201915b505050505090509550955095509550505092959194509250565b60008060008567ffffffffffffffff1667ffffffffffffffff168152602001908152602001600020905060008160000160009054906101000a900460ff16905081610323018160ff1660648110611f1757fe5b6003020160000160009054906101000a900473ffffffffffffffffffffffffffffffffffffffff1673ffffffffffffffffffffffffffffffffffffffff163373ffffffffffffffffffffffffffffffffffffffff1614611f7357fe5b81600001600081819054906101000a900460ff168092919060010191906101000a81548160ff021916908360ff160217905550508160000160009054906101000a900460ff1690508382610323018260ff1660648110611fcf57fe5b6003020160000160006101000a81548173ffffffffffffffffffffffffffffffffffffffff021916908373ffffffffffffffffffffffffffffffffffffffff1602179055504282610323018260ff166064811061202857fe5b60030201600101819055508282610323018260ff166064811061204757fe5b60030201600201819055505050505050565b828054600181600116156101000203166002900490600052602060002090601f016020900481019282601f1061209a57805160ff19168380011785556120c8565b828001600101855582156120c8579182015b828111156120c75782518255916020019190600101906120ac565b5b5090506120d591906120d9565b5090565b6120fb91905b808211156120f75760008160009055506001016120df565b5090565b9056fea265627a7a72315820a86e6ba56a5d038b84ccd86e44f6aeed4861e184812172a16edda9cd95a11cfd64736f6c634300050c0032",
  "source": "pragma solidity ^0.5.0;\r\n/// @title Automobile data storage\r\n\r\n\r\ncontract CarContract {\r\n\r\n    struct PartInfo {\r\n        string part;\r\n        uint timeInstalled;\r\n        uint carMileage;\r\n        string whoInstalledPart;\r\n    }\r\n\r\n    struct OwnerInfo {\r\n        address ownerAddress;\r\n        uint timeBought;\r\n        uint carMileage;\r\n    }\r\n\r\n    struct CarStruct {\r\n\tuint8 counterOwner;    // Current owner array position\r\n\tuint8 counterAirbag;   // Current airbag array position\r\n\tuint8 counterEngine;   // Current engine array position\r\n\tuint8 counterTires;    // Current tires array position\r\n        uint64 vin;            // VINs are 17 digits long. This will never change\r\n        string carMake;        // This will never change\r\n        string carModel;       // This will never change\r\n        PartInfo[50] airbag;\r\n        PartInfo[50] engine;\r\n        PartInfo[100] tires;\r\n        OwnerInfo[100] ownerHistory;\r\n    }\r\n    \r\n    // Automobiles added to the registry\r\n    // Creates a CarStruct for every possible VIN\r\n    mapping (uint64 => CarStruct) automobiles;\r\n    \r\n    // This is the constructor whose code is only run when the contract is first created\r\n    function CarContractt(uint64 vin_, string memory newCarMake, string memory newCarModel) public {\r\n        automobiles[vin_].vin = vin_;\r\n        automobiles[vin_].carMake = newCarMake;\r\n        automobiles[vin_].carModel = newCarModel;\r\n        automobiles[vin_].ownerHistory[0].ownerAddress = msg.sender;\r\n        automobiles[vin_].ownerHistory[0].timeBought = now;\r\n        automobiles[vin_].ownerHistory[0].carMileage = 0;\r\n    }\r\n   \r\n    function getAllIndexes(uint64 vin_) public view returns (uint8 ownerIndex, uint8 airbagIndex_,\r\n                                                             uint8 engineIndex_, uint8 tiresIndex) {\r\n        CarStruct storage currentCar = automobiles[vin_];\r\n        return (currentCar.counterOwner, currentCar.counterAirbag, currentCar.counterEngine, currentCar.counterTires);\r\n    }\r\n\r\n    function getStaticCarInfo(uint64 vin_) public view returns (uint64 vinOut, string memory _carMake, string memory _carModel) {\r\n        return (automobiles[vin_].vin, automobiles[vin_].carMake, automobiles[vin_].carModel);\r\n    }\r\n \r\n    function getAirbag(uint64 vin_, uint8 arrayIndex_) public view returns (string memory _part, uint _timeInstalled,\r\n                                                                uint _carMileage, string memory _whoInstalledPart) {\r\n        CarStruct storage currentCar = automobiles[vin_];\r\n\tuint8 counterOwner_ = currentCar.counterOwner;\r\n        assert(msg.sender == currentCar.ownerHistory[counterOwner_].ownerAddress);\r\n        return (currentCar.airbag[arrayIndex_].part,\r\n                currentCar.airbag[arrayIndex_].timeInstalled,\r\n                currentCar.airbag[arrayIndex_].carMileage,\r\n                currentCar.airbag[arrayIndex_].whoInstalledPart);\r\n    }\r\n    \r\n    function getEngine(uint64 vin_, uint8 arrayIndex_) public view returns (string memory _part, uint _timeInstalled,\r\n                                                                uint _carMileage, string memory _whoInstalledPart) {\r\n        CarStruct storage currentCar = automobiles[vin_];\r\n\tuint8 counterOwner_ = currentCar.counterOwner;\r\n        assert(msg.sender == currentCar.ownerHistory[counterOwner_].ownerAddress);\r\n        return (currentCar.engine[arrayIndex_].part,\r\n                currentCar.engine[arrayIndex_].timeInstalled,\r\n                currentCar.engine[arrayIndex_].carMileage,\r\n                currentCar.engine[arrayIndex_].whoInstalledPart);\r\n    }\r\n\r\n    function getTires(uint64 vin_, uint8 arrayIndex_) public view returns (string memory _part, uint _timeInstalled,\r\n                                                                uint _carMileage, string memory _whoInstalledPart) {\r\n        CarStruct storage currentCar = automobiles[vin_];\r\n\tuint8 counterOwner_ = currentCar.counterOwner;\r\n        assert(msg.sender == currentCar.ownerHistory[counterOwner_].ownerAddress);\r\n        return (currentCar.tires[arrayIndex_].part,\r\n                currentCar.tires[arrayIndex_].timeInstalled,\r\n                currentCar.tires[arrayIndex_].carMileage,\r\n                currentCar.tires[arrayIndex_].whoInstalledPart);\r\n    }\r\n\r\n    function getOwner(uint64 vin_, uint8 arrayIndex_) public view returns (address _ownerAddress, uint _timeBought, uint _carMileage) {\r\n        CarStruct storage currentCar = automobiles[vin_];\r\n\tuint8 counterOwner_ = currentCar.counterOwner;\r\n        assert(msg.sender == currentCar.ownerHistory[counterOwner_].ownerAddress);\r\n        return (currentCar.ownerHistory[arrayIndex_].ownerAddress,\r\n                currentCar.ownerHistory[arrayIndex_].timeBought,\r\n                currentCar.ownerHistory[arrayIndex_].carMileage);\r\n    }\r\n\r\n    function changeOwner(uint64 vin_, address newOwner, uint currentMileage) public {\r\n        // Current owner is only one that can make a part change\r\n        // assert verifies current owner is the person making the part change request\r\n        CarStruct storage currentCar = automobiles[vin_];\r\n\tuint8 counterOwner_ = currentCar.counterOwner;\r\n        assert(msg.sender == currentCar.ownerHistory[counterOwner_].ownerAddress);\r\n        currentCar.counterOwner++;\r\n\tcounterOwner_ = currentCar.counterOwner;\r\n        currentCar.ownerHistory[counterOwner_].ownerAddress = newOwner;\r\n        currentCar.ownerHistory[counterOwner_].timeBought = now;\r\n        currentCar.ownerHistory[counterOwner_].carMileage = currentMileage;\r\n    }\r\n    \r\n    function changeAirbag (uint64 vin_, string memory newAirbag, uint currentMileage, string memory newMechanic) public {\r\n        // Current owner is only one that can make a part change\r\n        // assert verifies current owner is the person making the part change request\r\n        CarStruct storage currentCar = automobiles[vin_];\r\n\tuint8 counterOwner_ = currentCar.counterOwner;\r\n        assert(msg.sender == currentCar.ownerHistory[counterOwner_].ownerAddress);\r\n        if (bytes(currentCar.airbag[0].part).length > 0) {\r\n            // If first airbag has been logged, move to next spot in array\r\n            currentCar.counterAirbag++;\r\n        }\r\n\tuint8 counterAirbag_ = currentCar.counterAirbag;\r\n        currentCar.airbag[counterAirbag_].part = newAirbag;\r\n        currentCar.airbag[counterAirbag_].timeInstalled = now;\r\n        currentCar.airbag[counterAirbag_].carMileage = currentMileage;\r\n        currentCar.airbag[counterAirbag_].whoInstalledPart = newMechanic;\r\n    }\r\n    \r\n    function changeEngine (uint64 vin_, string memory newEngine, uint currentMileage, string memory newMechanic) public {\r\n        // Current owner is only one that can make a part change\r\n        // assert verifies current owner is the person making the part change request\r\n        CarStruct storage currentCar = automobiles[vin_];\r\n\tuint8 counterOwner_ = currentCar.counterOwner;\r\n        assert(msg.sender == currentCar.ownerHistory[counterOwner_].ownerAddress);\r\n        if (bytes(currentCar.engine[0].part).length > 0) {\r\n            // If first engine has been logged, move to next spot in array\r\n            currentCar.counterEngine++;\r\n        }\r\n\tuint8 counterEngine_ = currentCar.counterEngine;\r\n        currentCar.engine[counterEngine_].part = newEngine;\r\n        currentCar.engine[counterEngine_].timeInstalled = now;\r\n        currentCar.engine[counterEngine_].carMileage = currentMileage;\r\n        currentCar.engine[counterEngine_].whoInstalledPart = newMechanic;    \r\n    }\r\n    \r\n    function changeTires (uint64 vin_, string memory newTires, uint currentMileage, string memory newMechanic) public {\r\n        // Current owner is only one that can make a part change\r\n        // assert verifies current owner is the person making the part change request\r\n        CarStruct storage currentCar = automobiles[vin_];\r\n\tuint8 counterOwner_ = currentCar.counterOwner;\r\n        assert(msg.sender == currentCar.ownerHistory[counterOwner_].ownerAddress);\r\n        if (bytes(currentCar.tires[0].part).length > 0) {\r\n            // If first set of tires have been logged, move to next spot in array\r\n            currentCar.counterTires++;\r\n        }\r\n\tuint8 counterTires_ = currentCar.counterTires;\r\n        currentCar.tires[counterTires_].part = newTires;\r\n        currentCar.tires[counterTires_].timeInstalled = now;\r\n        currentCar.tires[counterTires_].carMileage = currentMileage;\r\n        currentCar.tires[counterTires_].whoInstalledPart = newMechanic;  \r\n    }\r\n}",
  "sourcePath": "C:\\Users\\m7-66\\Desktop\\TruffleProject-rentCar\\contracts\\carhis.sol",
  "compiler": {
    "name": "solc",
    "version": "0.5.12+commit.7709ece9.Emscripten.clang"
  },
  "schemaVersion": "3.0.18",
  "updatedAt": "2020-07-20T16:50:40.920Z",
  "devdoc": {
    "methods": {},
    "title": "Automobile data storage"
  },
  "userdoc": {
    "methods": {}
  }
}